{
	"HealthcareRecordManager.sol": {
		"HealthcareRecordManager": {
			"abi": [
				{
					"inputs": [],
					"stateMutability": "nonpayable",
					"type": "constructor"
				},
				{
					"anonymous": false,
					"inputs": [
						{
							"indexed": true,
							"internalType": "address",
							"name": "patient",
							"type": "address"
						},
						{
							"indexed": true,
							"internalType": "address",
							"name": "viewer",
							"type": "address"
						}
					],
					"name": "AccessGranted",
					"type": "event"
				},
				{
					"anonymous": false,
					"inputs": [
						{
							"indexed": true,
							"internalType": "address",
							"name": "patient",
							"type": "address"
						},
						{
							"indexed": true,
							"internalType": "address",
							"name": "viewer",
							"type": "address"
						}
					],
					"name": "AccessRevoked",
					"type": "event"
				},
				{
					"anonymous": false,
					"inputs": [
						{
							"indexed": true,
							"internalType": "address",
							"name": "patient",
							"type": "address"
						},
						{
							"indexed": false,
							"internalType": "uint256",
							"name": "recordIndex",
							"type": "uint256"
						},
						{
							"indexed": true,
							"internalType": "address",
							"name": "by",
							"type": "address"
						}
					],
					"name": "RecordAdded",
					"type": "event"
				},
				{
					"inputs": [
						{
							"internalType": "address",
							"name": "_doc",
							"type": "address"
						}
					],
					"name": "addDoctor",
					"outputs": [],
					"stateMutability": "nonpayable",
					"type": "function"
				},
				{
					"inputs": [
						{
							"internalType": "address",
							"name": "_patient",
							"type": "address"
						},
						{
							"internalType": "string",
							"name": "_dataHash",
							"type": "string"
						}
					],
					"name": "addRecord",
					"outputs": [],
					"stateMutability": "nonpayable",
					"type": "function"
				},
				{
					"inputs": [],
					"name": "admin",
					"outputs": [
						{
							"internalType": "address",
							"name": "",
							"type": "address"
						}
					],
					"stateMutability": "view",
					"type": "function"
				},
				{
					"inputs": [
						{
							"internalType": "address",
							"name": "",
							"type": "address"
						}
					],
					"name": "doctors",
					"outputs": [
						{
							"internalType": "bool",
							"name": "",
							"type": "bool"
						}
					],
					"stateMutability": "view",
					"type": "function"
				},
				{
					"inputs": [
						{
							"internalType": "address",
							"name": "_patient",
							"type": "address"
						}
					],
					"name": "getRecords",
					"outputs": [
						{
							"components": [
								{
									"internalType": "uint256",
									"name": "timestamp",
									"type": "uint256"
								},
								{
									"internalType": "string",
									"name": "dataHash",
									"type": "string"
								},
								{
									"internalType": "address",
									"name": "addedBy",
									"type": "address"
								}
							],
							"internalType": "struct HealthcareRecordManager.Record[]",
							"name": "",
							"type": "tuple[]"
						}
					],
					"stateMutability": "view",
					"type": "function"
				},
				{
					"inputs": [
						{
							"internalType": "address",
							"name": "_viewer",
							"type": "address"
						}
					],
					"name": "grantAccess",
					"outputs": [],
					"stateMutability": "nonpayable",
					"type": "function"
				},
				{
					"inputs": [
						{
							"internalType": "address",
							"name": "_doc",
							"type": "address"
						}
					],
					"name": "removeDoctor",
					"outputs": [],
					"stateMutability": "nonpayable",
					"type": "function"
				},
				{
					"inputs": [
						{
							"internalType": "address",
							"name": "_viewer",
							"type": "address"
						}
					],
					"name": "revokeAccess",
					"outputs": [],
					"stateMutability": "nonpayable",
					"type": "function"
				}
			],
			"devdoc": {
				"kind": "dev",
				"methods": {},
				"title": "HealthcareRecordManager",
				"version": 1
			},
			"evm": {
				"assembly": "    /* \"HealthcareRecordManager.sol\":179:2606  contract HealthcareRecordManager {... */\n  mstore(0x40, 0x80)\n    /* \"HealthcareRecordManager.sol\":1167:1216  constructor() {... */\n  callvalue\n  dup1\n  iszero\n  tag_1\n  jumpi\n  revert(0x00, 0x00)\ntag_1:\n  pop\n    /* \"HealthcareRecordManager.sol\":1199:1209  msg.sender */\n  caller\n    /* \"HealthcareRecordManager.sol\":1191:1196  admin */\n  0x00\n  0x00\n    /* \"HealthcareRecordManager.sol\":1191:1209  admin = msg.sender */\n  0x0100\n  exp\n  dup2\n  sload\n  dup2\n  0xffffffffffffffffffffffffffffffffffffffff\n  mul\n  not\n  and\n  swap1\n  dup4\n  0xffffffffffffffffffffffffffffffffffffffff\n  and\n  mul\n  or\n  swap1\n  sstore\n  pop\n    /* \"HealthcareRecordManager.sol\":179:2606  contract HealthcareRecordManager {... */\n  dataSize(sub_0)\n  dup1\n  dataOffset(sub_0)\n  0x00\n  codecopy\n  0x00\n  return\nstop\n\nsub_0: assembly {\n        /* \"HealthcareRecordManager.sol\":179:2606  contract HealthcareRecordManager {... */\n      mstore(0x40, 0x80)\n      callvalue\n      dup1\n      iszero\n      tag_1\n      jumpi\n      revert(0x00, 0x00)\n    tag_1:\n      pop\n      jumpi(tag_2, lt(calldatasize, 0x04))\n      shr(0xe0, calldataload(0x00))\n      dup1\n      0x98fc90e9\n      gt\n      tag_11\n      jumpi\n      dup1\n      0x98fc90e9\n      eq\n      tag_7\n      jumpi\n      dup1\n      0xa0076e84\n      eq\n      tag_8\n      jumpi\n      dup1\n      0xa9583c22\n      eq\n      tag_9\n      jumpi\n      dup1\n      0xf851a440\n      eq\n      tag_10\n      jumpi\n      jump(tag_2)\n    tag_11:\n      dup1\n      0x0ae5e739\n      eq\n      tag_3\n      jumpi\n      dup1\n      0x4780468f\n      eq\n      tag_4\n      jumpi\n      dup1\n      0x66858ec8\n      eq\n      tag_5\n      jumpi\n      dup1\n      0x85e68531\n      eq\n      tag_6\n      jumpi\n    tag_2:\n      revert(0x00, 0x00)\n        /* \"HealthcareRecordManager.sol\":1476:1629  function grantAccess(address _viewer) external {... */\n    tag_3:\n      tag_12\n      0x04\n      dup1\n      calldatasize\n      sub\n      dup2\n      add\n      swap1\n      tag_13\n      swap2\n      swap1\n      tag_14\n      jump\t// in\n    tag_13:\n      tag_15\n      jump\t// in\n    tag_12:\n      stop\n        /* \"HealthcareRecordManager.sol\":1245:1334  function addDoctor(address _doc) external onlyAdmin {... */\n    tag_4:\n      tag_16\n      0x04\n      dup1\n      calldatasize\n      sub\n      dup2\n      add\n      swap1\n      tag_17\n      swap2\n      swap1\n      tag_14\n      jump\t// in\n    tag_17:\n      tag_18\n      jump\t// in\n    tag_16:\n      stop\n        /* \"HealthcareRecordManager.sol\":1828:2202  function addRecord(address _patient, string calldata _dataHash) external onlyDoctor {... */\n    tag_5:\n      tag_19\n      0x04\n      dup1\n      calldatasize\n      sub\n      dup2\n      add\n      swap1\n      tag_20\n      swap2\n      swap1\n      tag_21\n      jump\t// in\n    tag_20:\n      tag_22\n      jump\t// in\n    tag_19:\n      stop\n        /* \"HealthcareRecordManager.sol\":1635:1790  function revokeAccess(address _viewer) external {... */\n    tag_6:\n      tag_23\n      0x04\n      dup1\n      calldatasize\n      sub\n      dup2\n      add\n      swap1\n      tag_24\n      swap2\n      swap1\n      tag_14\n      jump\t// in\n    tag_24:\n      tag_25\n      jump\t// in\n    tag_23:\n      stop\n        /* \"HealthcareRecordManager.sol\":1340:1433  function removeDoctor(address _doc) external onlyAdmin {... */\n    tag_7:\n      tag_26\n      0x04\n      dup1\n      calldatasize\n      sub\n      dup2\n      add\n      swap1\n      tag_27\n      swap2\n      swap1\n      tag_14\n      jump\t// in\n    tag_27:\n      tag_28\n      jump\t// in\n    tag_26:\n      stop\n        /* \"HealthcareRecordManager.sol\":2273:2604  function getRecords(address _patient)... */\n    tag_8:\n      tag_29\n      0x04\n      dup1\n      calldatasize\n      sub\n      dup2\n      add\n      swap1\n      tag_30\n      swap2\n      swap1\n      tag_14\n      jump\t// in\n    tag_30:\n      tag_31\n      jump\t// in\n    tag_29:\n      mload(0x40)\n      tag_32\n      swap2\n      swap1\n      tag_33\n      jump\t// in\n    tag_32:\n      mload(0x40)\n      dup1\n      swap2\n      sub\n      swap1\n      return\n        /* \"HealthcareRecordManager.sol\":257:296  mapping(address => bool) public doctors */\n    tag_9:\n      tag_34\n      0x04\n      dup1\n      calldatasize\n      sub\n      dup2\n      add\n      swap1\n      tag_35\n      swap2\n      swap1\n      tag_14\n      jump\t// in\n    tag_35:\n      tag_36\n      jump\t// in\n    tag_34:\n      mload(0x40)\n      tag_37\n      swap2\n      swap1\n      tag_38\n      jump\t// in\n    tag_37:\n      mload(0x40)\n      dup1\n      swap2\n      sub\n      swap1\n      return\n        /* \"HealthcareRecordManager.sol\":231:251  address public admin */\n    tag_10:\n      tag_39\n      tag_40\n      jump\t// in\n    tag_39:\n      mload(0x40)\n      tag_41\n      swap2\n      swap1\n      tag_42\n      jump\t// in\n    tag_41:\n      mload(0x40)\n      dup1\n      swap2\n      sub\n      swap1\n      return\n        /* \"HealthcareRecordManager.sol\":1476:1629  function grantAccess(address _viewer) external {... */\n    tag_15:\n        /* \"HealthcareRecordManager.sol\":1569:1573  true */\n      0x01\n        /* \"HealthcareRecordManager.sol\":1533:1545  accessRights */\n      0x03\n        /* \"HealthcareRecordManager.sol\":1533:1557  accessRights[msg.sender] */\n      0x00\n        /* \"HealthcareRecordManager.sol\":1546:1556  msg.sender */\n      caller\n        /* \"HealthcareRecordManager.sol\":1533:1557  accessRights[msg.sender] */\n      0xffffffffffffffffffffffffffffffffffffffff\n      and\n      0xffffffffffffffffffffffffffffffffffffffff\n      and\n      dup2\n      mstore\n      0x20\n      add\n      swap1\n      dup2\n      mstore\n      0x20\n      add\n      0x00\n      keccak256\n        /* \"HealthcareRecordManager.sol\":1533:1566  accessRights[msg.sender][_viewer] */\n      0x00\n        /* \"HealthcareRecordManager.sol\":1558:1565  _viewer */\n      dup4\n        /* \"HealthcareRecordManager.sol\":1533:1566  accessRights[msg.sender][_viewer] */\n      0xffffffffffffffffffffffffffffffffffffffff\n      and\n      0xffffffffffffffffffffffffffffffffffffffff\n      and\n      dup2\n      mstore\n      0x20\n      add\n      swap1\n      dup2\n      mstore\n      0x20\n      add\n      0x00\n      keccak256\n      0x00\n        /* \"HealthcareRecordManager.sol\":1533:1573  accessRights[msg.sender][_viewer] = true */\n      0x0100\n      exp\n      dup2\n      sload\n      dup2\n      0xff\n      mul\n      not\n      and\n      swap1\n      dup4\n      iszero\n      iszero\n      mul\n      or\n      swap1\n      sstore\n      pop\n        /* \"HealthcareRecordManager.sol\":1614:1621  _viewer */\n      dup1\n        /* \"HealthcareRecordManager.sol\":1588:1622  AccessGranted(msg.sender, _viewer) */\n      0xffffffffffffffffffffffffffffffffffffffff\n      and\n        /* \"HealthcareRecordManager.sol\":1602:1612  msg.sender */\n      caller\n        /* \"HealthcareRecordManager.sol\":1588:1622  AccessGranted(msg.sender, _viewer) */\n      0xffffffffffffffffffffffffffffffffffffffff\n      and\n      0x9f520b3bfc56d06f7065d10b4683b3f57ac8895d5026cd176dee95ce1454cb8d\n      mload(0x40)\n      mload(0x40)\n      dup1\n      swap2\n      sub\n      swap1\n      log3\n        /* \"HealthcareRecordManager.sol\":1476:1629  function grantAccess(address _viewer) external {... */\n      pop\n      jump\t// out\n        /* \"HealthcareRecordManager.sol\":1245:1334  function addDoctor(address _doc) external onlyAdmin {... */\n    tag_18:\n        /* \"HealthcareRecordManager.sol\":1023:1028  admin */\n      0x00\n      0x00\n      swap1\n      sload\n      swap1\n      0x0100\n      exp\n      swap1\n      div\n      0xffffffffffffffffffffffffffffffffffffffff\n      and\n        /* \"HealthcareRecordManager.sol\":1009:1028  msg.sender == admin */\n      0xffffffffffffffffffffffffffffffffffffffff\n      and\n        /* \"HealthcareRecordManager.sol\":1009:1019  msg.sender */\n      caller\n        /* \"HealthcareRecordManager.sol\":1009:1028  msg.sender == admin */\n      0xffffffffffffffffffffffffffffffffffffffff\n      and\n      eq\n        /* \"HealthcareRecordManager.sol\":1001:1043  require(msg.sender == admin, \"Only admin\") */\n      tag_45\n      jumpi\n      mload(0x40)\n      0x08c379a000000000000000000000000000000000000000000000000000000000\n      dup2\n      mstore\n      0x04\n      add\n      tag_46\n      swap1\n      tag_47\n      jump\t// in\n    tag_46:\n      mload(0x40)\n      dup1\n      swap2\n      sub\n      swap1\n      revert\n    tag_45:\n        /* \"HealthcareRecordManager.sol\":1323:1327  true */\n      0x01\n        /* \"HealthcareRecordManager.sol\":1307:1314  doctors */\n      dup1\n        /* \"HealthcareRecordManager.sol\":1307:1320  doctors[_doc] */\n      0x00\n        /* \"HealthcareRecordManager.sol\":1315:1319  _doc */\n      dup4\n        /* \"HealthcareRecordManager.sol\":1307:1320  doctors[_doc] */\n      0xffffffffffffffffffffffffffffffffffffffff\n      and\n      0xffffffffffffffffffffffffffffffffffffffff\n      and\n      dup2\n      mstore\n      0x20\n      add\n      swap1\n      dup2\n      mstore\n      0x20\n      add\n      0x00\n      keccak256\n      0x00\n        /* \"HealthcareRecordManager.sol\":1307:1327  doctors[_doc] = true */\n      0x0100\n      exp\n      dup2\n      sload\n      dup2\n      0xff\n      mul\n      not\n      and\n      swap1\n      dup4\n      iszero\n      iszero\n      mul\n      or\n      swap1\n      sstore\n      pop\n        /* \"HealthcareRecordManager.sol\":1245:1334  function addDoctor(address _doc) external onlyAdmin {... */\n      pop\n      jump\t// out\n        /* \"HealthcareRecordManager.sol\":1828:2202  function addRecord(address _patient, string calldata _dataHash) external onlyDoctor {... */\n    tag_22:\n        /* \"HealthcareRecordManager.sol\":1107:1114  doctors */\n      0x01\n        /* \"HealthcareRecordManager.sol\":1107:1126  doctors[msg.sender] */\n      0x00\n        /* \"HealthcareRecordManager.sol\":1115:1125  msg.sender */\n      caller\n        /* \"HealthcareRecordManager.sol\":1107:1126  doctors[msg.sender] */\n      0xffffffffffffffffffffffffffffffffffffffff\n      and\n      0xffffffffffffffffffffffffffffffffffffffff\n      and\n      dup2\n      mstore\n      0x20\n      add\n      swap1\n      dup2\n      mstore\n      0x20\n      add\n      0x00\n      keccak256\n      0x00\n      swap1\n      sload\n      swap1\n      0x0100\n      exp\n      swap1\n      div\n      0xff\n      and\n        /* \"HealthcareRecordManager.sol\":1099:1143  require(doctors[msg.sender], \"Only doctors\") */\n      tag_50\n      jumpi\n      mload(0x40)\n      0x08c379a000000000000000000000000000000000000000000000000000000000\n      dup2\n      mstore\n      0x04\n      add\n      tag_51\n      swap1\n      tag_52\n      jump\t// in\n    tag_51:\n      mload(0x40)\n      dup1\n      swap2\n      sub\n      swap1\n      revert\n    tag_50:\n        /* \"HealthcareRecordManager.sol\":1922:1939  Record memory rec */\n      0x00\n        /* \"HealthcareRecordManager.sol\":1942:2066  Record({... */\n      mload(0x40)\n      dup1\n      0x60\n      add\n      0x40\n      mstore\n      dup1\n        /* \"HealthcareRecordManager.sol\":1974:1989  block.timestamp */\n      timestamp\n        /* \"HealthcareRecordManager.sol\":1942:2066  Record({... */\n      dup2\n      mstore\n      0x20\n      add\n        /* \"HealthcareRecordManager.sol\":2013:2022  _dataHash */\n      dup5\n      dup5\n        /* \"HealthcareRecordManager.sol\":1942:2066  Record({... */\n      dup1\n      dup1\n      0x1f\n      add\n      0x20\n      dup1\n      swap2\n      div\n      mul\n      0x20\n      add\n      mload(0x40)\n      swap1\n      dup2\n      add\n      0x40\n      mstore\n      dup1\n      swap4\n      swap3\n      swap2\n      swap1\n      dup2\n      dup2\n      mstore\n      0x20\n      add\n      dup4\n      dup4\n      dup1\n      dup3\n      dup5\n      calldatacopy\n      0x00\n      dup2\n      dup5\n      add\n      mstore\n      not(0x1f)\n      0x1f\n      dup3\n      add\n      and\n      swap1\n      pop\n      dup1\n      dup4\n      add\n      swap3\n      pop\n      pop\n      pop\n      pop\n      pop\n      pop\n      pop\n      dup2\n      mstore\n      0x20\n      add\n        /* \"HealthcareRecordManager.sol\":2045:2055  msg.sender */\n      caller\n        /* \"HealthcareRecordManager.sol\":1942:2066  Record({... */\n      0xffffffffffffffffffffffffffffffffffffffff\n      and\n      dup2\n      mstore\n      pop\n        /* \"HealthcareRecordManager.sol\":1922:2066  Record memory rec = Record({... */\n      swap1\n      pop\n        /* \"HealthcareRecordManager.sol\":2076:2090  patientRecords */\n      0x02\n        /* \"HealthcareRecordManager.sol\":2076:2100  patientRecords[_patient] */\n      0x00\n        /* \"HealthcareRecordManager.sol\":2091:2099  _patient */\n      dup6\n        /* \"HealthcareRecordManager.sol\":2076:2100  patientRecords[_patient] */\n      0xffffffffffffffffffffffffffffffffffffffff\n      and\n      0xffffffffffffffffffffffffffffffffffffffff\n      and\n      dup2\n      mstore\n      0x20\n      add\n      swap1\n      dup2\n      mstore\n      0x20\n      add\n      0x00\n      keccak256\n        /* \"HealthcareRecordManager.sol\":2106:2109  rec */\n      dup2\n        /* \"HealthcareRecordManager.sol\":2076:2110  patientRecords[_patient].push(rec) */\n      swap1\n      dup1\n      0x01\n      dup2\n      sload\n      add\n      dup1\n      dup3\n      sstore\n      dup1\n      swap2\n      pop\n      pop\n      0x01\n      swap1\n      sub\n      swap1\n      0x00\n      mstore\n      keccak256(0x00, 0x20)\n      swap1\n      0x03\n      mul\n      add\n      0x00\n      swap1\n      swap2\n      swap1\n      swap2\n      swap1\n      swap2\n      pop\n      0x00\n      dup3\n      add\n      mload\n      dup2\n      0x00\n      add\n      sstore\n      0x20\n      dup3\n      add\n      mload\n      dup2\n      0x01\n      add\n      swap1\n      dup2\n      tag_55\n      swap2\n      swap1\n      tag_56\n      jump\t// in\n    tag_55:\n      pop\n      0x40\n      dup3\n      add\n      mload\n      dup2\n      0x02\n      add\n      exp(0x0100, 0x00)\n      dup2\n      sload\n      dup2\n      0xffffffffffffffffffffffffffffffffffffffff\n      mul\n      not\n      and\n      swap1\n      dup4\n      0xffffffffffffffffffffffffffffffffffffffff\n      and\n      mul\n      or\n      swap1\n      sstore\n      pop\n      pop\n      pop\n        /* \"HealthcareRecordManager.sol\":2184:2194  msg.sender */\n      caller\n        /* \"HealthcareRecordManager.sol\":2125:2195  RecordAdded(_patient, patientRecords[_patient].length - 1, msg.sender) */\n      0xffffffffffffffffffffffffffffffffffffffff\n      and\n        /* \"HealthcareRecordManager.sol\":2137:2145  _patient */\n      dup5\n        /* \"HealthcareRecordManager.sol\":2125:2195  RecordAdded(_patient, patientRecords[_patient].length - 1, msg.sender) */\n      0xffffffffffffffffffffffffffffffffffffffff\n      and\n      0xfab51555fe575ed9125c36207ba251b154757166d29b3a412d1015e3f9a3da0e\n        /* \"HealthcareRecordManager.sol\":2181:2182  1 */\n      0x01\n        /* \"HealthcareRecordManager.sol\":2147:2161  patientRecords */\n      0x02\n        /* \"HealthcareRecordManager.sol\":2147:2171  patientRecords[_patient] */\n      0x00\n        /* \"HealthcareRecordManager.sol\":2162:2170  _patient */\n      dup10\n        /* \"HealthcareRecordManager.sol\":2147:2171  patientRecords[_patient] */\n      0xffffffffffffffffffffffffffffffffffffffff\n      and\n      0xffffffffffffffffffffffffffffffffffffffff\n      and\n      dup2\n      mstore\n      0x20\n      add\n      swap1\n      dup2\n      mstore\n      0x20\n      add\n      0x00\n      keccak256\n        /* \"HealthcareRecordManager.sol\":2147:2178  patientRecords[_patient].length */\n      dup1\n      sload\n      swap1\n      pop\n        /* \"HealthcareRecordManager.sol\":2147:2182  patientRecords[_patient].length - 1 */\n      tag_57\n      swap2\n      swap1\n      tag_58\n      jump\t// in\n    tag_57:\n        /* \"HealthcareRecordManager.sol\":2125:2195  RecordAdded(_patient, patientRecords[_patient].length - 1, msg.sender) */\n      mload(0x40)\n      tag_59\n      swap2\n      swap1\n      tag_60\n      jump\t// in\n    tag_59:\n      mload(0x40)\n      dup1\n      swap2\n      sub\n      swap1\n      log3\n        /* \"HealthcareRecordManager.sol\":1912:2202  {... */\n      pop\n        /* \"HealthcareRecordManager.sol\":1828:2202  function addRecord(address _patient, string calldata _dataHash) external onlyDoctor {... */\n      pop\n      pop\n      pop\n      jump\t// out\n        /* \"HealthcareRecordManager.sol\":1635:1790  function revokeAccess(address _viewer) external {... */\n    tag_25:\n        /* \"HealthcareRecordManager.sol\":1729:1734  false */\n      0x00\n        /* \"HealthcareRecordManager.sol\":1693:1705  accessRights */\n      0x03\n        /* \"HealthcareRecordManager.sol\":1693:1717  accessRights[msg.sender] */\n      0x00\n        /* \"HealthcareRecordManager.sol\":1706:1716  msg.sender */\n      caller\n        /* \"HealthcareRecordManager.sol\":1693:1717  accessRights[msg.sender] */\n      0xffffffffffffffffffffffffffffffffffffffff\n      and\n      0xffffffffffffffffffffffffffffffffffffffff\n      and\n      dup2\n      mstore\n      0x20\n      add\n      swap1\n      dup2\n      mstore\n      0x20\n      add\n      0x00\n      keccak256\n        /* \"HealthcareRecordManager.sol\":1693:1726  accessRights[msg.sender][_viewer] */\n      0x00\n        /* \"HealthcareRecordManager.sol\":1718:1725  _viewer */\n      dup4\n        /* \"HealthcareRecordManager.sol\":1693:1726  accessRights[msg.sender][_viewer] */\n      0xffffffffffffffffffffffffffffffffffffffff\n      and\n      0xffffffffffffffffffffffffffffffffffffffff\n      and\n      dup2\n      mstore\n      0x20\n      add\n      swap1\n      dup2\n      mstore\n      0x20\n      add\n      0x00\n      keccak256\n      0x00\n        /* \"HealthcareRecordManager.sol\":1693:1734  accessRights[msg.sender][_viewer] = false */\n      0x0100\n      exp\n      dup2\n      sload\n      dup2\n      0xff\n      mul\n      not\n      and\n      swap1\n      dup4\n      iszero\n      iszero\n      mul\n      or\n      swap1\n      sstore\n      pop\n        /* \"HealthcareRecordManager.sol\":1775:1782  _viewer */\n      dup1\n        /* \"HealthcareRecordManager.sol\":1749:1783  AccessRevoked(msg.sender, _viewer) */\n      0xffffffffffffffffffffffffffffffffffffffff\n      and\n        /* \"HealthcareRecordManager.sol\":1763:1773  msg.sender */\n      caller\n        /* \"HealthcareRecordManager.sol\":1749:1783  AccessRevoked(msg.sender, _viewer) */\n      0xffffffffffffffffffffffffffffffffffffffff\n      and\n      0x825c8be24eb0df19500f63e86c29e7d0d951e73056b889b891d85e40938d9b6e\n      mload(0x40)\n      mload(0x40)\n      dup1\n      swap2\n      sub\n      swap1\n      log3\n        /* \"HealthcareRecordManager.sol\":1635:1790  function revokeAccess(address _viewer) external {... */\n      pop\n      jump\t// out\n        /* \"HealthcareRecordManager.sol\":1340:1433  function removeDoctor(address _doc) external onlyAdmin {... */\n    tag_28:\n        /* \"HealthcareRecordManager.sol\":1023:1028  admin */\n      0x00\n      0x00\n      swap1\n      sload\n      swap1\n      0x0100\n      exp\n      swap1\n      div\n      0xffffffffffffffffffffffffffffffffffffffff\n      and\n        /* \"HealthcareRecordManager.sol\":1009:1028  msg.sender == admin */\n      0xffffffffffffffffffffffffffffffffffffffff\n      and\n        /* \"HealthcareRecordManager.sol\":1009:1019  msg.sender */\n      caller\n        /* \"HealthcareRecordManager.sol\":1009:1028  msg.sender == admin */\n      0xffffffffffffffffffffffffffffffffffffffff\n      and\n      eq\n        /* \"HealthcareRecordManager.sol\":1001:1043  require(msg.sender == admin, \"Only admin\") */\n      tag_63\n      jumpi\n      mload(0x40)\n      0x08c379a000000000000000000000000000000000000000000000000000000000\n      dup2\n      mstore\n      0x04\n      add\n      tag_64\n      swap1\n      tag_47\n      jump\t// in\n    tag_64:\n      mload(0x40)\n      dup1\n      swap2\n      sub\n      swap1\n      revert\n    tag_63:\n        /* \"HealthcareRecordManager.sol\":1421:1426  false */\n      0x00\n        /* \"HealthcareRecordManager.sol\":1405:1412  doctors */\n      0x01\n        /* \"HealthcareRecordManager.sol\":1405:1418  doctors[_doc] */\n      0x00\n        /* \"HealthcareRecordManager.sol\":1413:1417  _doc */\n      dup4\n        /* \"HealthcareRecordManager.sol\":1405:1418  doctors[_doc] */\n      0xffffffffffffffffffffffffffffffffffffffff\n      and\n      0xffffffffffffffffffffffffffffffffffffffff\n      and\n      dup2\n      mstore\n      0x20\n      add\n      swap1\n      dup2\n      mstore\n      0x20\n      add\n      0x00\n      keccak256\n      0x00\n        /* \"HealthcareRecordManager.sol\":1405:1426  doctors[_doc] = false */\n      0x0100\n      exp\n      dup2\n      sload\n      dup2\n      0xff\n      mul\n      not\n      and\n      swap1\n      dup4\n      iszero\n      iszero\n      mul\n      or\n      swap1\n      sstore\n      pop\n        /* \"HealthcareRecordManager.sol\":1340:1433  function removeDoctor(address _doc) external onlyAdmin {... */\n      pop\n      jump\t// out\n        /* \"HealthcareRecordManager.sol\":2273:2604  function getRecords(address _patient)... */\n    tag_31:\n        /* \"HealthcareRecordManager.sol\":2358:2373  Record[] memory */\n      0x60\n        /* \"HealthcareRecordManager.sol\":2424:2432  _patient */\n      dup2\n        /* \"HealthcareRecordManager.sol\":2410:2432  msg.sender == _patient */\n      0xffffffffffffffffffffffffffffffffffffffff\n      and\n        /* \"HealthcareRecordManager.sol\":2410:2420  msg.sender */\n      caller\n        /* \"HealthcareRecordManager.sol\":2410:2432  msg.sender == _patient */\n      0xffffffffffffffffffffffffffffffffffffffff\n      and\n      eq\n        /* \"HealthcareRecordManager.sol\":2410:2482  msg.sender == _patient ||... */\n      dup1\n      tag_67\n      jumpi\n      pop\n        /* \"HealthcareRecordManager.sol\":2448:2460  accessRights */\n      0x03\n        /* \"HealthcareRecordManager.sol\":2448:2470  accessRights[_patient] */\n      0x00\n        /* \"HealthcareRecordManager.sol\":2461:2469  _patient */\n      dup4\n        /* \"HealthcareRecordManager.sol\":2448:2470  accessRights[_patient] */\n      0xffffffffffffffffffffffffffffffffffffffff\n      and\n      0xffffffffffffffffffffffffffffffffffffffff\n      and\n      dup2\n      mstore\n      0x20\n      add\n      swap1\n      dup2\n      mstore\n      0x20\n      add\n      0x00\n      keccak256\n        /* \"HealthcareRecordManager.sol\":2448:2482  accessRights[_patient][msg.sender] */\n      0x00\n        /* \"HealthcareRecordManager.sol\":2471:2481  msg.sender */\n      caller\n        /* \"HealthcareRecordManager.sol\":2448:2482  accessRights[_patient][msg.sender] */\n      0xffffffffffffffffffffffffffffffffffffffff\n      and\n      0xffffffffffffffffffffffffffffffffffffffff\n      and\n      dup2\n      mstore\n      0x20\n      add\n      swap1\n      dup2\n      mstore\n      0x20\n      add\n      0x00\n      keccak256\n      0x00\n      swap1\n      sload\n      swap1\n      0x0100\n      exp\n      swap1\n      div\n      0xff\n      and\n        /* \"HealthcareRecordManager.sol\":2410:2482  msg.sender == _patient ||... */\n    tag_67:\n        /* \"HealthcareRecordManager.sol\":2410:2517  msg.sender == _patient ||... */\n      dup1\n      tag_68\n      jumpi\n      pop\n        /* \"HealthcareRecordManager.sol\":2498:2505  doctors */\n      0x01\n        /* \"HealthcareRecordManager.sol\":2498:2517  doctors[msg.sender] */\n      0x00\n        /* \"HealthcareRecordManager.sol\":2506:2516  msg.sender */\n      caller\n        /* \"HealthcareRecordManager.sol\":2498:2517  doctors[msg.sender] */\n      0xffffffffffffffffffffffffffffffffffffffff\n      and\n      0xffffffffffffffffffffffffffffffffffffffff\n      and\n      dup2\n      mstore\n      0x20\n      add\n      swap1\n      dup2\n      mstore\n      0x20\n      add\n      0x00\n      keccak256\n      0x00\n      swap1\n      sload\n      swap1\n      0x0100\n      exp\n      swap1\n      div\n      0xff\n      and\n        /* \"HealthcareRecordManager.sol\":2410:2517  msg.sender == _patient ||... */\n    tag_68:\n        /* \"HealthcareRecordManager.sol\":2389:2556  require(... */\n      tag_69\n      jumpi\n      mload(0x40)\n      0x08c379a000000000000000000000000000000000000000000000000000000000\n      dup2\n      mstore\n      0x04\n      add\n      tag_70\n      swap1\n      tag_71\n      jump\t// in\n    tag_70:\n      mload(0x40)\n      dup1\n      swap2\n      sub\n      swap1\n      revert\n    tag_69:\n        /* \"HealthcareRecordManager.sol\":2573:2587  patientRecords */\n      0x02\n        /* \"HealthcareRecordManager.sol\":2573:2597  patientRecords[_patient] */\n      0x00\n        /* \"HealthcareRecordManager.sol\":2588:2596  _patient */\n      dup4\n        /* \"HealthcareRecordManager.sol\":2573:2597  patientRecords[_patient] */\n      0xffffffffffffffffffffffffffffffffffffffff\n      and\n      0xffffffffffffffffffffffffffffffffffffffff\n      and\n      dup2\n      mstore\n      0x20\n      add\n      swap1\n      dup2\n      mstore\n      0x20\n      add\n      0x00\n      keccak256\n        /* \"HealthcareRecordManager.sol\":2566:2597  return patientRecords[_patient] */\n      dup1\n      sload\n      dup1\n      0x20\n      mul\n      0x20\n      add\n      mload(0x40)\n      swap1\n      dup2\n      add\n      0x40\n      mstore\n      dup1\n      swap3\n      swap2\n      swap1\n      dup2\n      dup2\n      mstore\n      0x20\n      add\n      0x00\n      swap1\n    tag_72:\n      dup3\n      dup3\n      lt\n      iszero\n      tag_73\n      jumpi\n      dup4\n      dup3\n      swap1\n      0x00\n      mstore\n      keccak256(0x00, 0x20)\n      swap1\n      0x03\n      mul\n      add\n      mload(0x40)\n      dup1\n      0x60\n      add\n      0x40\n      mstore\n      swap1\n      dup2\n      0x00\n      dup3\n      add\n      sload\n      dup2\n      mstore\n      0x20\n      add\n      0x01\n      dup3\n      add\n      dup1\n      sload\n      tag_75\n      swap1\n      tag_76\n      jump\t// in\n    tag_75:\n      dup1\n      0x1f\n      add\n      0x20\n      dup1\n      swap2\n      div\n      mul\n      0x20\n      add\n      mload(0x40)\n      swap1\n      dup2\n      add\n      0x40\n      mstore\n      dup1\n      swap3\n      swap2\n      swap1\n      dup2\n      dup2\n      mstore\n      0x20\n      add\n      dup3\n      dup1\n      sload\n      tag_77\n      swap1\n      tag_76\n      jump\t// in\n    tag_77:\n      dup1\n      iszero\n      tag_78\n      jumpi\n      dup1\n      0x1f\n      lt\n      tag_79\n      jumpi\n      0x0100\n      dup1\n      dup4\n      sload\n      div\n      mul\n      dup4\n      mstore\n      swap2\n      0x20\n      add\n      swap2\n      jump(tag_78)\n    tag_79:\n      dup3\n      add\n      swap2\n      swap1\n      0x00\n      mstore\n      keccak256(0x00, 0x20)\n      swap1\n    tag_80:\n      dup2\n      sload\n      dup2\n      mstore\n      swap1\n      0x01\n      add\n      swap1\n      0x20\n      add\n      dup1\n      dup4\n      gt\n      tag_80\n      jumpi\n      dup3\n      swap1\n      sub\n      0x1f\n      and\n      dup3\n      add\n      swap2\n    tag_78:\n      pop\n      pop\n      pop\n      pop\n      pop\n      dup2\n      mstore\n      0x20\n      add\n      0x02\n      dup3\n      add\n      0x00\n      swap1\n      sload\n      swap1\n      0x0100\n      exp\n      swap1\n      div\n      0xffffffffffffffffffffffffffffffffffffffff\n      and\n      0xffffffffffffffffffffffffffffffffffffffff\n      and\n      0xffffffffffffffffffffffffffffffffffffffff\n      and\n      dup2\n      mstore\n      pop\n      pop\n      dup2\n      mstore\n      0x20\n      add\n      swap1\n      0x01\n      add\n      swap1\n      jump(tag_72)\n    tag_73:\n      pop\n      pop\n      pop\n      pop\n      swap1\n      pop\n        /* \"HealthcareRecordManager.sol\":2273:2604  function getRecords(address _patient)... */\n      swap2\n      swap1\n      pop\n      jump\t// out\n        /* \"HealthcareRecordManager.sol\":257:296  mapping(address => bool) public doctors */\n    tag_36:\n      mstore(0x20, 0x01)\n      dup1\n      0x00\n      mstore\n      keccak256(0x00, 0x40)\n      0x00\n      swap2\n      pop\n      sload\n      swap1\n      0x0100\n      exp\n      swap1\n      div\n      0xff\n      and\n      dup2\n      jump\t// out\n        /* \"HealthcareRecordManager.sol\":231:251  address public admin */\n    tag_40:\n      0x00\n      0x00\n      swap1\n      sload\n      swap1\n      0x0100\n      exp\n      swap1\n      div\n      0xffffffffffffffffffffffffffffffffffffffff\n      and\n      dup2\n      jump\t// out\n        /* \"#utility.yul\":88:205   */\n    tag_82:\n        /* \"#utility.yul\":197:198   */\n      0x00\n        /* \"#utility.yul\":194:195   */\n      0x00\n        /* \"#utility.yul\":187:199   */\n      revert\n        /* \"#utility.yul\":211:328   */\n    tag_83:\n        /* \"#utility.yul\":320:321   */\n      0x00\n        /* \"#utility.yul\":317:318   */\n      0x00\n        /* \"#utility.yul\":310:322   */\n      revert\n        /* \"#utility.yul\":334:460   */\n    tag_84:\n        /* \"#utility.yul\":371:378   */\n      0x00\n        /* \"#utility.yul\":411:453   */\n      0xffffffffffffffffffffffffffffffffffffffff\n        /* \"#utility.yul\":404:409   */\n      dup3\n        /* \"#utility.yul\":400:454   */\n      and\n        /* \"#utility.yul\":389:454   */\n      swap1\n      pop\n        /* \"#utility.yul\":334:460   */\n      swap2\n      swap1\n      pop\n      jump\t// out\n        /* \"#utility.yul\":466:562   */\n    tag_85:\n        /* \"#utility.yul\":503:510   */\n      0x00\n        /* \"#utility.yul\":532:556   */\n      tag_142\n        /* \"#utility.yul\":550:555   */\n      dup3\n        /* \"#utility.yul\":532:556   */\n      tag_84\n      jump\t// in\n    tag_142:\n        /* \"#utility.yul\":521:556   */\n      swap1\n      pop\n        /* \"#utility.yul\":466:562   */\n      swap2\n      swap1\n      pop\n      jump\t// out\n        /* \"#utility.yul\":568:690   */\n    tag_86:\n        /* \"#utility.yul\":641:665   */\n      tag_144\n        /* \"#utility.yul\":659:664   */\n      dup2\n        /* \"#utility.yul\":641:665   */\n      tag_85\n      jump\t// in\n    tag_144:\n        /* \"#utility.yul\":634:639   */\n      dup2\n        /* \"#utility.yul\":631:666   */\n      eq\n        /* \"#utility.yul\":621:684   */\n      tag_145\n      jumpi\n        /* \"#utility.yul\":680:681   */\n      0x00\n        /* \"#utility.yul\":677:678   */\n      0x00\n        /* \"#utility.yul\":670:682   */\n      revert\n        /* \"#utility.yul\":621:684   */\n    tag_145:\n        /* \"#utility.yul\":568:690   */\n      pop\n      jump\t// out\n        /* \"#utility.yul\":696:835   */\n    tag_87:\n        /* \"#utility.yul\":742:747   */\n      0x00\n        /* \"#utility.yul\":780:786   */\n      dup2\n        /* \"#utility.yul\":767:787   */\n      calldataload\n        /* \"#utility.yul\":758:787   */\n      swap1\n      pop\n        /* \"#utility.yul\":796:829   */\n      tag_147\n        /* \"#utility.yul\":823:828   */\n      dup2\n        /* \"#utility.yul\":796:829   */\n      tag_86\n      jump\t// in\n    tag_147:\n        /* \"#utility.yul\":696:835   */\n      swap3\n      swap2\n      pop\n      pop\n      jump\t// out\n        /* \"#utility.yul\":841:1170   */\n    tag_14:\n        /* \"#utility.yul\":900:906   */\n      0x00\n        /* \"#utility.yul\":949:951   */\n      0x20\n        /* \"#utility.yul\":937:946   */\n      dup3\n        /* \"#utility.yul\":928:935   */\n      dup5\n        /* \"#utility.yul\":924:947   */\n      sub\n        /* \"#utility.yul\":920:952   */\n      slt\n        /* \"#utility.yul\":917:1036   */\n      iszero\n      tag_149\n      jumpi\n        /* \"#utility.yul\":955:1034   */\n      tag_150\n      tag_82\n      jump\t// in\n    tag_150:\n        /* \"#utility.yul\":917:1036   */\n    tag_149:\n        /* \"#utility.yul\":1075:1076   */\n      0x00\n        /* \"#utility.yul\":1100:1153   */\n      tag_151\n        /* \"#utility.yul\":1145:1152   */\n      dup5\n        /* \"#utility.yul\":1136:1142   */\n      dup3\n        /* \"#utility.yul\":1125:1134   */\n      dup6\n        /* \"#utility.yul\":1121:1143   */\n      add\n        /* \"#utility.yul\":1100:1153   */\n      tag_87\n      jump\t// in\n    tag_151:\n        /* \"#utility.yul\":1090:1153   */\n      swap2\n      pop\n        /* \"#utility.yul\":1046:1163   */\n      pop\n        /* \"#utility.yul\":841:1170   */\n      swap3\n      swap2\n      pop\n      pop\n      jump\t// out\n        /* \"#utility.yul\":1176:1293   */\n    tag_88:\n        /* \"#utility.yul\":1285:1286   */\n      0x00\n        /* \"#utility.yul\":1282:1283   */\n      0x00\n        /* \"#utility.yul\":1275:1287   */\n      revert\n        /* \"#utility.yul\":1299:1416   */\n    tag_89:\n        /* \"#utility.yul\":1408:1409   */\n      0x00\n        /* \"#utility.yul\":1405:1406   */\n      0x00\n        /* \"#utility.yul\":1398:1410   */\n      revert\n        /* \"#utility.yul\":1422:1539   */\n    tag_90:\n        /* \"#utility.yul\":1531:1532   */\n      0x00\n        /* \"#utility.yul\":1528:1529   */\n      0x00\n        /* \"#utility.yul\":1521:1533   */\n      revert\n        /* \"#utility.yul\":1559:2112   */\n    tag_91:\n        /* \"#utility.yul\":1617:1625   */\n      0x00\n        /* \"#utility.yul\":1627:1633   */\n      0x00\n        /* \"#utility.yul\":1677:1680   */\n      dup4\n        /* \"#utility.yul\":1670:1674   */\n      0x1f\n        /* \"#utility.yul\":1662:1668   */\n      dup5\n        /* \"#utility.yul\":1658:1675   */\n      add\n        /* \"#utility.yul\":1654:1681   */\n      slt\n        /* \"#utility.yul\":1644:1766   */\n      tag_156\n      jumpi\n        /* \"#utility.yul\":1685:1764   */\n      tag_157\n      tag_88\n      jump\t// in\n    tag_157:\n        /* \"#utility.yul\":1644:1766   */\n    tag_156:\n        /* \"#utility.yul\":1798:1804   */\n      dup3\n        /* \"#utility.yul\":1785:1805   */\n      calldataload\n        /* \"#utility.yul\":1775:1805   */\n      swap1\n      pop\n        /* \"#utility.yul\":1828:1846   */\n      0xffffffffffffffff\n        /* \"#utility.yul\":1820:1826   */\n      dup2\n        /* \"#utility.yul\":1817:1847   */\n      gt\n        /* \"#utility.yul\":1814:1931   */\n      iszero\n      tag_158\n      jumpi\n        /* \"#utility.yul\":1850:1929   */\n      tag_159\n      tag_89\n      jump\t// in\n    tag_159:\n        /* \"#utility.yul\":1814:1931   */\n    tag_158:\n        /* \"#utility.yul\":1964:1968   */\n      0x20\n        /* \"#utility.yul\":1956:1962   */\n      dup4\n        /* \"#utility.yul\":1952:1969   */\n      add\n        /* \"#utility.yul\":1940:1969   */\n      swap2\n      pop\n        /* \"#utility.yul\":2018:2021   */\n      dup4\n        /* \"#utility.yul\":2010:2014   */\n      0x01\n        /* \"#utility.yul\":2002:2008   */\n      dup3\n        /* \"#utility.yul\":1998:2015   */\n      mul\n        /* \"#utility.yul\":1988:1996   */\n      dup4\n        /* \"#utility.yul\":1984:2016   */\n      add\n        /* \"#utility.yul\":1981:2022   */\n      gt\n        /* \"#utility.yul\":1978:2106   */\n      iszero\n      tag_160\n      jumpi\n        /* \"#utility.yul\":2025:2104   */\n      tag_161\n      tag_90\n      jump\t// in\n    tag_161:\n        /* \"#utility.yul\":1978:2106   */\n    tag_160:\n        /* \"#utility.yul\":1559:2112   */\n      swap3\n      pop\n      swap3\n      swap1\n      pop\n      jump\t// out\n        /* \"#utility.yul\":2118:2792   */\n    tag_21:\n        /* \"#utility.yul\":2198:2204   */\n      0x00\n        /* \"#utility.yul\":2206:2212   */\n      0x00\n        /* \"#utility.yul\":2214:2220   */\n      0x00\n        /* \"#utility.yul\":2263:2265   */\n      0x40\n        /* \"#utility.yul\":2251:2260   */\n      dup5\n        /* \"#utility.yul\":2242:2249   */\n      dup7\n        /* \"#utility.yul\":2238:2261   */\n      sub\n        /* \"#utility.yul\":2234:2266   */\n      slt\n        /* \"#utility.yul\":2231:2350   */\n      iszero\n      tag_163\n      jumpi\n        /* \"#utility.yul\":2269:2348   */\n      tag_164\n      tag_82\n      jump\t// in\n    tag_164:\n        /* \"#utility.yul\":2231:2350   */\n    tag_163:\n        /* \"#utility.yul\":2389:2390   */\n      0x00\n        /* \"#utility.yul\":2414:2467   */\n      tag_165\n        /* \"#utility.yul\":2459:2466   */\n      dup7\n        /* \"#utility.yul\":2450:2456   */\n      dup3\n        /* \"#utility.yul\":2439:2448   */\n      dup8\n        /* \"#utility.yul\":2435:2457   */\n      add\n        /* \"#utility.yul\":2414:2467   */\n      tag_87\n      jump\t// in\n    tag_165:\n        /* \"#utility.yul\":2404:2467   */\n      swap4\n      pop\n        /* \"#utility.yul\":2360:2477   */\n      pop\n        /* \"#utility.yul\":2544:2546   */\n      0x20\n        /* \"#utility.yul\":2533:2542   */\n      dup5\n        /* \"#utility.yul\":2529:2547   */\n      add\n        /* \"#utility.yul\":2516:2548   */\n      calldataload\n        /* \"#utility.yul\":2575:2593   */\n      0xffffffffffffffff\n        /* \"#utility.yul\":2567:2573   */\n      dup2\n        /* \"#utility.yul\":2564:2594   */\n      gt\n        /* \"#utility.yul\":2561:2678   */\n      iszero\n      tag_166\n      jumpi\n        /* \"#utility.yul\":2597:2676   */\n      tag_167\n      tag_83\n      jump\t// in\n    tag_167:\n        /* \"#utility.yul\":2561:2678   */\n    tag_166:\n        /* \"#utility.yul\":2710:2775   */\n      tag_168\n        /* \"#utility.yul\":2767:2774   */\n      dup7\n        /* \"#utility.yul\":2758:2764   */\n      dup3\n        /* \"#utility.yul\":2747:2756   */\n      dup8\n        /* \"#utility.yul\":2743:2765   */\n      add\n        /* \"#utility.yul\":2710:2775   */\n      tag_91\n      jump\t// in\n    tag_168:\n        /* \"#utility.yul\":2692:2775   */\n      swap3\n      pop\n      swap3\n      pop\n        /* \"#utility.yul\":2487:2785   */\n      pop\n        /* \"#utility.yul\":2118:2792   */\n      swap3\n      pop\n      swap3\n      pop\n      swap3\n      jump\t// out\n        /* \"#utility.yul\":2798:2934   */\n    tag_92:\n        /* \"#utility.yul\":2887:2893   */\n      0x00\n        /* \"#utility.yul\":2921:2926   */\n      dup2\n        /* \"#utility.yul\":2915:2927   */\n      mload\n        /* \"#utility.yul\":2905:2927   */\n      swap1\n      pop\n        /* \"#utility.yul\":2798:2934   */\n      swap2\n      swap1\n      pop\n      jump\t// out\n        /* \"#utility.yul\":2940:3146   */\n    tag_93:\n        /* \"#utility.yul\":3061:3072   */\n      0x00\n        /* \"#utility.yul\":3095:3101   */\n      dup3\n        /* \"#utility.yul\":3090:3093   */\n      dup3\n        /* \"#utility.yul\":3083:3102   */\n      mstore\n        /* \"#utility.yul\":3135:3139   */\n      0x20\n        /* \"#utility.yul\":3130:3133   */\n      dup3\n        /* \"#utility.yul\":3126:3140   */\n      add\n        /* \"#utility.yul\":3111:3140   */\n      swap1\n      pop\n        /* \"#utility.yul\":2940:3146   */\n      swap3\n      swap2\n      pop\n      pop\n      jump\t// out\n        /* \"#utility.yul\":3152:3306   */\n    tag_94:\n        /* \"#utility.yul\":3241:3245   */\n      0x00\n        /* \"#utility.yul\":3264:3267   */\n      dup2\n        /* \"#utility.yul\":3256:3267   */\n      swap1\n      pop\n        /* \"#utility.yul\":3294:3298   */\n      0x20\n        /* \"#utility.yul\":3289:3292   */\n      dup3\n        /* \"#utility.yul\":3285:3299   */\n      add\n        /* \"#utility.yul\":3277:3299   */\n      swap1\n      pop\n        /* \"#utility.yul\":3152:3306   */\n      swap2\n      swap1\n      pop\n      jump\t// out\n        /* \"#utility.yul\":3312:3389   */\n    tag_95:\n        /* \"#utility.yul\":3349:3356   */\n      0x00\n        /* \"#utility.yul\":3378:3383   */\n      dup2\n        /* \"#utility.yul\":3367:3383   */\n      swap1\n      pop\n        /* \"#utility.yul\":3312:3389   */\n      swap2\n      swap1\n      pop\n      jump\t// out\n        /* \"#utility.yul\":3395:3503   */\n    tag_96:\n        /* \"#utility.yul\":3472:3496   */\n      tag_174\n        /* \"#utility.yul\":3490:3495   */\n      dup2\n        /* \"#utility.yul\":3472:3496   */\n      tag_95\n      jump\t// in\n    tag_174:\n        /* \"#utility.yul\":3467:3470   */\n      dup3\n        /* \"#utility.yul\":3460:3497   */\n      mstore\n        /* \"#utility.yul\":3395:3503   */\n      pop\n      pop\n      jump\t// out\n        /* \"#utility.yul\":3509:3608   */\n    tag_97:\n        /* \"#utility.yul\":3561:3567   */\n      0x00\n        /* \"#utility.yul\":3595:3600   */\n      dup2\n        /* \"#utility.yul\":3589:3601   */\n      mload\n        /* \"#utility.yul\":3579:3601   */\n      swap1\n      pop\n        /* \"#utility.yul\":3509:3608   */\n      swap2\n      swap1\n      pop\n      jump\t// out\n        /* \"#utility.yul\":3614:3773   */\n    tag_98:\n        /* \"#utility.yul\":3688:3699   */\n      0x00\n        /* \"#utility.yul\":3722:3728   */\n      dup3\n        /* \"#utility.yul\":3717:3720   */\n      dup3\n        /* \"#utility.yul\":3710:3729   */\n      mstore\n        /* \"#utility.yul\":3762:3766   */\n      0x20\n        /* \"#utility.yul\":3757:3760   */\n      dup3\n        /* \"#utility.yul\":3753:3767   */\n      add\n        /* \"#utility.yul\":3738:3767   */\n      swap1\n      pop\n        /* \"#utility.yul\":3614:3773   */\n      swap3\n      swap2\n      pop\n      pop\n      jump\t// out\n        /* \"#utility.yul\":3779:3918   */\n    tag_99:\n        /* \"#utility.yul\":3868:3874   */\n      dup3\n        /* \"#utility.yul\":3863:3866   */\n      dup2\n        /* \"#utility.yul\":3858:3861   */\n      dup4\n        /* \"#utility.yul\":3852:3875   */\n      mcopy\n        /* \"#utility.yul\":3909:3910   */\n      0x00\n        /* \"#utility.yul\":3900:3906   */\n      dup4\n        /* \"#utility.yul\":3895:3898   */\n      dup4\n        /* \"#utility.yul\":3891:3907   */\n      add\n        /* \"#utility.yul\":3884:3911   */\n      mstore\n        /* \"#utility.yul\":3779:3918   */\n      pop\n      pop\n      pop\n      jump\t// out\n        /* \"#utility.yul\":3924:4026   */\n    tag_100:\n        /* \"#utility.yul\":3965:3971   */\n      0x00\n        /* \"#utility.yul\":4016:4018   */\n      0x1f\n        /* \"#utility.yul\":4012:4019   */\n      not\n        /* \"#utility.yul\":4007:4009   */\n      0x1f\n        /* \"#utility.yul\":4000:4005   */\n      dup4\n        /* \"#utility.yul\":3996:4010   */\n      add\n        /* \"#utility.yul\":3992:4020   */\n      and\n        /* \"#utility.yul\":3982:4020   */\n      swap1\n      pop\n        /* \"#utility.yul\":3924:4026   */\n      swap2\n      swap1\n      pop\n      jump\t// out\n        /* \"#utility.yul\":4032:4389   */\n    tag_101:\n        /* \"#utility.yul\":4110:4113   */\n      0x00\n        /* \"#utility.yul\":4138:4177   */\n      tag_180\n        /* \"#utility.yul\":4171:4176   */\n      dup3\n        /* \"#utility.yul\":4138:4177   */\n      tag_97\n      jump\t// in\n    tag_180:\n        /* \"#utility.yul\":4193:4254   */\n      tag_181\n        /* \"#utility.yul\":4247:4253   */\n      dup2\n        /* \"#utility.yul\":4242:4245   */\n      dup6\n        /* \"#utility.yul\":4193:4254   */\n      tag_98\n      jump\t// in\n    tag_181:\n        /* \"#utility.yul\":4186:4254   */\n      swap4\n      pop\n        /* \"#utility.yul\":4263:4328   */\n      tag_182\n        /* \"#utility.yul\":4321:4327   */\n      dup2\n        /* \"#utility.yul\":4316:4319   */\n      dup6\n        /* \"#utility.yul\":4309:4313   */\n      0x20\n        /* \"#utility.yul\":4302:4307   */\n      dup7\n        /* \"#utility.yul\":4298:4314   */\n      add\n        /* \"#utility.yul\":4263:4328   */\n      tag_99\n      jump\t// in\n    tag_182:\n        /* \"#utility.yul\":4353:4382   */\n      tag_183\n        /* \"#utility.yul\":4375:4381   */\n      dup2\n        /* \"#utility.yul\":4353:4382   */\n      tag_100\n      jump\t// in\n    tag_183:\n        /* \"#utility.yul\":4348:4351   */\n      dup5\n        /* \"#utility.yul\":4344:4383   */\n      add\n        /* \"#utility.yul\":4337:4383   */\n      swap2\n      pop\n        /* \"#utility.yul\":4114:4389   */\n      pop\n        /* \"#utility.yul\":4032:4389   */\n      swap3\n      swap2\n      pop\n      pop\n      jump\t// out\n        /* \"#utility.yul\":4395:4503   */\n    tag_102:\n        /* \"#utility.yul\":4472:4496   */\n      tag_185\n        /* \"#utility.yul\":4490:4495   */\n      dup2\n        /* \"#utility.yul\":4472:4496   */\n      tag_85\n      jump\t// in\n    tag_185:\n        /* \"#utility.yul\":4467:4470   */\n      dup3\n        /* \"#utility.yul\":4460:4497   */\n      mstore\n        /* \"#utility.yul\":4395:4503   */\n      pop\n      pop\n      jump\t// out\n        /* \"#utility.yul\":4595:5371   */\n    tag_103:\n        /* \"#utility.yul\":4698:4701   */\n      0x00\n        /* \"#utility.yul\":4734:4738   */\n      0x60\n        /* \"#utility.yul\":4729:4732   */\n      dup4\n        /* \"#utility.yul\":4725:4739   */\n      add\n        /* \"#utility.yul\":4826:4830   */\n      0x00\n        /* \"#utility.yul\":4819:4824   */\n      dup4\n        /* \"#utility.yul\":4815:4831   */\n      add\n        /* \"#utility.yul\":4809:4832   */\n      mload\n        /* \"#utility.yul\":4845:4908   */\n      tag_187\n        /* \"#utility.yul\":4902:4906   */\n      0x00\n        /* \"#utility.yul\":4897:4900   */\n      dup7\n        /* \"#utility.yul\":4893:4907   */\n      add\n        /* \"#utility.yul\":4879:4891   */\n      dup3\n        /* \"#utility.yul\":4845:4908   */\n      tag_96\n      jump\t// in\n    tag_187:\n        /* \"#utility.yul\":4749:4918   */\n      pop\n        /* \"#utility.yul\":5004:5008   */\n      0x20\n        /* \"#utility.yul\":4997:5002   */\n      dup4\n        /* \"#utility.yul\":4993:5009   */\n      add\n        /* \"#utility.yul\":4987:5010   */\n      mload\n        /* \"#utility.yul\":5057:5060   */\n      dup5\n        /* \"#utility.yul\":5051:5055   */\n      dup3\n        /* \"#utility.yul\":5047:5061   */\n      sub\n        /* \"#utility.yul\":5040:5044   */\n      0x20\n        /* \"#utility.yul\":5035:5038   */\n      dup7\n        /* \"#utility.yul\":5031:5045   */\n      add\n        /* \"#utility.yul\":5024:5062   */\n      mstore\n        /* \"#utility.yul\":5083:5156   */\n      tag_188\n        /* \"#utility.yul\":5151:5155   */\n      dup3\n        /* \"#utility.yul\":5137:5149   */\n      dup3\n        /* \"#utility.yul\":5083:5156   */\n      tag_101\n      jump\t// in\n    tag_188:\n        /* \"#utility.yul\":5075:5156   */\n      swap2\n      pop\n        /* \"#utility.yul\":4928:5167   */\n      pop\n        /* \"#utility.yul\":5252:5256   */\n      0x40\n        /* \"#utility.yul\":5245:5250   */\n      dup4\n        /* \"#utility.yul\":5241:5257   */\n      add\n        /* \"#utility.yul\":5235:5258   */\n      mload\n        /* \"#utility.yul\":5271:5334   */\n      tag_189\n        /* \"#utility.yul\":5328:5332   */\n      0x40\n        /* \"#utility.yul\":5323:5326   */\n      dup7\n        /* \"#utility.yul\":5319:5333   */\n      add\n        /* \"#utility.yul\":5305:5317   */\n      dup3\n        /* \"#utility.yul\":5271:5334   */\n      tag_102\n      jump\t// in\n    tag_189:\n        /* \"#utility.yul\":5177:5344   */\n      pop\n        /* \"#utility.yul\":5361:5365   */\n      dup1\n        /* \"#utility.yul\":5354:5365   */\n      swap2\n      pop\n        /* \"#utility.yul\":4703:5371   */\n      pop\n        /* \"#utility.yul\":4595:5371   */\n      swap3\n      swap2\n      pop\n      pop\n      jump\t// out\n        /* \"#utility.yul\":5377:5621   */\n    tag_104:\n        /* \"#utility.yul\":5490:5500   */\n      0x00\n        /* \"#utility.yul\":5525:5615   */\n      tag_191\n        /* \"#utility.yul\":5611:5614   */\n      dup4\n        /* \"#utility.yul\":5603:5609   */\n      dup4\n        /* \"#utility.yul\":5525:5615   */\n      tag_103\n      jump\t// in\n    tag_191:\n        /* \"#utility.yul\":5511:5615   */\n      swap1\n      pop\n        /* \"#utility.yul\":5377:5621   */\n      swap3\n      swap2\n      pop\n      pop\n      jump\t// out\n        /* \"#utility.yul\":5627:5762   */\n    tag_105:\n        /* \"#utility.yul\":5719:5723   */\n      0x00\n        /* \"#utility.yul\":5751:5755   */\n      0x20\n        /* \"#utility.yul\":5746:5749   */\n      dup3\n        /* \"#utility.yul\":5742:5756   */\n      add\n        /* \"#utility.yul\":5734:5756   */\n      swap1\n      pop\n        /* \"#utility.yul\":5627:5762   */\n      swap2\n      swap1\n      pop\n      jump\t// out\n        /* \"#utility.yul\":5858:6945   */\n    tag_106:\n        /* \"#utility.yul\":6021:6024   */\n      0x00\n        /* \"#utility.yul\":6050:6126   */\n      tag_194\n        /* \"#utility.yul\":6120:6125   */\n      dup3\n        /* \"#utility.yul\":6050:6126   */\n      tag_92\n      jump\t// in\n    tag_194:\n        /* \"#utility.yul\":6142:6250   */\n      tag_195\n        /* \"#utility.yul\":6243:6249   */\n      dup2\n        /* \"#utility.yul\":6238:6241   */\n      dup6\n        /* \"#utility.yul\":6142:6250   */\n      tag_93\n      jump\t// in\n    tag_195:\n        /* \"#utility.yul\":6135:6250   */\n      swap4\n      pop\n        /* \"#utility.yul\":6276:6279   */\n      dup4\n        /* \"#utility.yul\":6321:6325   */\n      0x20\n        /* \"#utility.yul\":6313:6319   */\n      dup3\n        /* \"#utility.yul\":6309:6326   */\n      mul\n        /* \"#utility.yul\":6304:6307   */\n      dup6\n        /* \"#utility.yul\":6300:6327   */\n      add\n        /* \"#utility.yul\":6351:6429   */\n      tag_196\n        /* \"#utility.yul\":6423:6428   */\n      dup6\n        /* \"#utility.yul\":6351:6429   */\n      tag_94\n      jump\t// in\n    tag_196:\n        /* \"#utility.yul\":6452:6459   */\n      dup1\n        /* \"#utility.yul\":6483:6484   */\n      0x00\n        /* \"#utility.yul\":6468:6900   */\n    tag_197:\n        /* \"#utility.yul\":6493:6499   */\n      dup6\n        /* \"#utility.yul\":6490:6491   */\n      dup2\n        /* \"#utility.yul\":6487:6500   */\n      lt\n        /* \"#utility.yul\":6468:6900   */\n      iszero\n      tag_199\n      jumpi\n        /* \"#utility.yul\":6564:6573   */\n      dup5\n        /* \"#utility.yul\":6558:6562   */\n      dup5\n        /* \"#utility.yul\":6554:6574   */\n      sub\n        /* \"#utility.yul\":6549:6552   */\n      dup10\n        /* \"#utility.yul\":6542:6575   */\n      mstore\n        /* \"#utility.yul\":6615:6621   */\n      dup2\n        /* \"#utility.yul\":6609:6622   */\n      mload\n        /* \"#utility.yul\":6643:6751   */\n      tag_200\n        /* \"#utility.yul\":6746:6750   */\n      dup6\n        /* \"#utility.yul\":6731:6744   */\n      dup3\n        /* \"#utility.yul\":6643:6751   */\n      tag_104\n      jump\t// in\n    tag_200:\n        /* \"#utility.yul\":6635:6751   */\n      swap5\n      pop\n        /* \"#utility.yul\":6774:6856   */\n      tag_201\n        /* \"#utility.yul\":6849:6855   */\n      dup4\n        /* \"#utility.yul\":6774:6856   */\n      tag_105\n      jump\t// in\n    tag_201:\n        /* \"#utility.yul\":6764:6856   */\n      swap3\n      pop\n        /* \"#utility.yul\":6885:6889   */\n      0x20\n        /* \"#utility.yul\":6880:6883   */\n      dup11\n        /* \"#utility.yul\":6876:6890   */\n      add\n        /* \"#utility.yul\":6869:6890   */\n      swap10\n      pop\n        /* \"#utility.yul\":6528:6900   */\n      pop\n        /* \"#utility.yul\":6515:6516   */\n      0x01\n        /* \"#utility.yul\":6512:6513   */\n      dup2\n        /* \"#utility.yul\":6508:6517   */\n      add\n        /* \"#utility.yul\":6503:6517   */\n      swap1\n      pop\n        /* \"#utility.yul\":6468:6900   */\n      jump(tag_197)\n    tag_199:\n        /* \"#utility.yul\":6472:6486   */\n      pop\n        /* \"#utility.yul\":6916:6920   */\n      dup3\n        /* \"#utility.yul\":6909:6920   */\n      swap8\n      pop\n        /* \"#utility.yul\":6936:6939   */\n      dup8\n        /* \"#utility.yul\":6929:6939   */\n      swap6\n      pop\n        /* \"#utility.yul\":6026:6945   */\n      pop\n      pop\n      pop\n      pop\n      pop\n        /* \"#utility.yul\":5858:6945   */\n      swap3\n      swap2\n      pop\n      pop\n      jump\t// out\n        /* \"#utility.yul\":6951:7412   */\n    tag_33:\n        /* \"#utility.yul\":7138:7142   */\n      0x00\n        /* \"#utility.yul\":7176:7178   */\n      0x20\n        /* \"#utility.yul\":7165:7174   */\n      dup3\n        /* \"#utility.yul\":7161:7179   */\n      add\n        /* \"#utility.yul\":7153:7179   */\n      swap1\n      pop\n        /* \"#utility.yul\":7225:7234   */\n      dup2\n        /* \"#utility.yul\":7219:7223   */\n      dup2\n        /* \"#utility.yul\":7215:7235   */\n      sub\n        /* \"#utility.yul\":7211:7212   */\n      0x00\n        /* \"#utility.yul\":7200:7209   */\n      dup4\n        /* \"#utility.yul\":7196:7213   */\n      add\n        /* \"#utility.yul\":7189:7236   */\n      mstore\n        /* \"#utility.yul\":7253:7405   */\n      tag_203\n        /* \"#utility.yul\":7400:7404   */\n      dup2\n        /* \"#utility.yul\":7391:7397   */\n      dup5\n        /* \"#utility.yul\":7253:7405   */\n      tag_106\n      jump\t// in\n    tag_203:\n        /* \"#utility.yul\":7245:7405   */\n      swap1\n      pop\n        /* \"#utility.yul\":6951:7412   */\n      swap3\n      swap2\n      pop\n      pop\n      jump\t// out\n        /* \"#utility.yul\":7418:7508   */\n    tag_107:\n        /* \"#utility.yul\":7452:7459   */\n      0x00\n        /* \"#utility.yul\":7495:7500   */\n      dup2\n        /* \"#utility.yul\":7488:7501   */\n      iszero\n        /* \"#utility.yul\":7481:7502   */\n      iszero\n        /* \"#utility.yul\":7470:7502   */\n      swap1\n      pop\n        /* \"#utility.yul\":7418:7508   */\n      swap2\n      swap1\n      pop\n      jump\t// out\n        /* \"#utility.yul\":7514:7623   */\n    tag_108:\n        /* \"#utility.yul\":7595:7616   */\n      tag_206\n        /* \"#utility.yul\":7610:7615   */\n      dup2\n        /* \"#utility.yul\":7595:7616   */\n      tag_107\n      jump\t// in\n    tag_206:\n        /* \"#utility.yul\":7590:7593   */\n      dup3\n        /* \"#utility.yul\":7583:7617   */\n      mstore\n        /* \"#utility.yul\":7514:7623   */\n      pop\n      pop\n      jump\t// out\n        /* \"#utility.yul\":7629:7839   */\n    tag_38:\n        /* \"#utility.yul\":7716:7720   */\n      0x00\n        /* \"#utility.yul\":7754:7756   */\n      0x20\n        /* \"#utility.yul\":7743:7752   */\n      dup3\n        /* \"#utility.yul\":7739:7757   */\n      add\n        /* \"#utility.yul\":7731:7757   */\n      swap1\n      pop\n        /* \"#utility.yul\":7767:7832   */\n      tag_208\n        /* \"#utility.yul\":7829:7830   */\n      0x00\n        /* \"#utility.yul\":7818:7827   */\n      dup4\n        /* \"#utility.yul\":7814:7831   */\n      add\n        /* \"#utility.yul\":7805:7811   */\n      dup5\n        /* \"#utility.yul\":7767:7832   */\n      tag_108\n      jump\t// in\n    tag_208:\n        /* \"#utility.yul\":7629:7839   */\n      swap3\n      swap2\n      pop\n      pop\n      jump\t// out\n        /* \"#utility.yul\":7845:7963   */\n    tag_109:\n        /* \"#utility.yul\":7932:7956   */\n      tag_210\n        /* \"#utility.yul\":7950:7955   */\n      dup2\n        /* \"#utility.yul\":7932:7956   */\n      tag_85\n      jump\t// in\n    tag_210:\n        /* \"#utility.yul\":7927:7930   */\n      dup3\n        /* \"#utility.yul\":7920:7957   */\n      mstore\n        /* \"#utility.yul\":7845:7963   */\n      pop\n      pop\n      jump\t// out\n        /* \"#utility.yul\":7969:8191   */\n    tag_42:\n        /* \"#utility.yul\":8062:8066   */\n      0x00\n        /* \"#utility.yul\":8100:8102   */\n      0x20\n        /* \"#utility.yul\":8089:8098   */\n      dup3\n        /* \"#utility.yul\":8085:8103   */\n      add\n        /* \"#utility.yul\":8077:8103   */\n      swap1\n      pop\n        /* \"#utility.yul\":8113:8184   */\n      tag_212\n        /* \"#utility.yul\":8181:8182   */\n      0x00\n        /* \"#utility.yul\":8170:8179   */\n      dup4\n        /* \"#utility.yul\":8166:8183   */\n      add\n        /* \"#utility.yul\":8157:8163   */\n      dup5\n        /* \"#utility.yul\":8113:8184   */\n      tag_109\n      jump\t// in\n    tag_212:\n        /* \"#utility.yul\":7969:8191   */\n      swap3\n      swap2\n      pop\n      pop\n      jump\t// out\n        /* \"#utility.yul\":8197:8366   */\n    tag_110:\n        /* \"#utility.yul\":8281:8292   */\n      0x00\n        /* \"#utility.yul\":8315:8321   */\n      dup3\n        /* \"#utility.yul\":8310:8313   */\n      dup3\n        /* \"#utility.yul\":8303:8322   */\n      mstore\n        /* \"#utility.yul\":8355:8359   */\n      0x20\n        /* \"#utility.yul\":8350:8353   */\n      dup3\n        /* \"#utility.yul\":8346:8360   */\n      add\n        /* \"#utility.yul\":8331:8360   */\n      swap1\n      pop\n        /* \"#utility.yul\":8197:8366   */\n      swap3\n      swap2\n      pop\n      pop\n      jump\t// out\n        /* \"#utility.yul\":8372:8532   */\n    tag_111:\n        /* \"#utility.yul\":8512:8524   */\n      0x4f6e6c792061646d696e00000000000000000000000000000000000000000000\n        /* \"#utility.yul\":8508:8509   */\n      0x00\n        /* \"#utility.yul\":8500:8506   */\n      dup3\n        /* \"#utility.yul\":8496:8510   */\n      add\n        /* \"#utility.yul\":8489:8525   */\n      mstore\n        /* \"#utility.yul\":8372:8532   */\n      pop\n      jump\t// out\n        /* \"#utility.yul\":8538:8904   */\n    tag_112:\n        /* \"#utility.yul\":8680:8683   */\n      0x00\n        /* \"#utility.yul\":8701:8768   */\n      tag_216\n        /* \"#utility.yul\":8765:8767   */\n      0x0a\n        /* \"#utility.yul\":8760:8763   */\n      dup4\n        /* \"#utility.yul\":8701:8768   */\n      tag_110\n      jump\t// in\n    tag_216:\n        /* \"#utility.yul\":8694:8768   */\n      swap2\n      pop\n        /* \"#utility.yul\":8777:8870   */\n      tag_217\n        /* \"#utility.yul\":8866:8869   */\n      dup3\n        /* \"#utility.yul\":8777:8870   */\n      tag_111\n      jump\t// in\n    tag_217:\n        /* \"#utility.yul\":8895:8897   */\n      0x20\n        /* \"#utility.yul\":8890:8893   */\n      dup3\n        /* \"#utility.yul\":8886:8898   */\n      add\n        /* \"#utility.yul\":8879:8898   */\n      swap1\n      pop\n        /* \"#utility.yul\":8538:8904   */\n      swap2\n      swap1\n      pop\n      jump\t// out\n        /* \"#utility.yul\":8910:9329   */\n    tag_47:\n        /* \"#utility.yul\":9076:9080   */\n      0x00\n        /* \"#utility.yul\":9114:9116   */\n      0x20\n        /* \"#utility.yul\":9103:9112   */\n      dup3\n        /* \"#utility.yul\":9099:9117   */\n      add\n        /* \"#utility.yul\":9091:9117   */\n      swap1\n      pop\n        /* \"#utility.yul\":9163:9172   */\n      dup2\n        /* \"#utility.yul\":9157:9161   */\n      dup2\n        /* \"#utility.yul\":9153:9173   */\n      sub\n        /* \"#utility.yul\":9149:9150   */\n      0x00\n        /* \"#utility.yul\":9138:9147   */\n      dup4\n        /* \"#utility.yul\":9134:9151   */\n      add\n        /* \"#utility.yul\":9127:9174   */\n      mstore\n        /* \"#utility.yul\":9191:9322   */\n      tag_219\n        /* \"#utility.yul\":9317:9321   */\n      dup2\n        /* \"#utility.yul\":9191:9322   */\n      tag_112\n      jump\t// in\n    tag_219:\n        /* \"#utility.yul\":9183:9322   */\n      swap1\n      pop\n        /* \"#utility.yul\":8910:9329   */\n      swap2\n      swap1\n      pop\n      jump\t// out\n        /* \"#utility.yul\":9335:9497   */\n    tag_113:\n        /* \"#utility.yul\":9475:9489   */\n      0x4f6e6c7920646f63746f72730000000000000000000000000000000000000000\n        /* \"#utility.yul\":9471:9472   */\n      0x00\n        /* \"#utility.yul\":9463:9469   */\n      dup3\n        /* \"#utility.yul\":9459:9473   */\n      add\n        /* \"#utility.yul\":9452:9490   */\n      mstore\n        /* \"#utility.yul\":9335:9497   */\n      pop\n      jump\t// out\n        /* \"#utility.yul\":9503:9869   */\n    tag_114:\n        /* \"#utility.yul\":9645:9648   */\n      0x00\n        /* \"#utility.yul\":9666:9733   */\n      tag_222\n        /* \"#utility.yul\":9730:9732   */\n      0x0c\n        /* \"#utility.yul\":9725:9728   */\n      dup4\n        /* \"#utility.yul\":9666:9733   */\n      tag_110\n      jump\t// in\n    tag_222:\n        /* \"#utility.yul\":9659:9733   */\n      swap2\n      pop\n        /* \"#utility.yul\":9742:9835   */\n      tag_223\n        /* \"#utility.yul\":9831:9834   */\n      dup3\n        /* \"#utility.yul\":9742:9835   */\n      tag_113\n      jump\t// in\n    tag_223:\n        /* \"#utility.yul\":9860:9862   */\n      0x20\n        /* \"#utility.yul\":9855:9858   */\n      dup3\n        /* \"#utility.yul\":9851:9863   */\n      add\n        /* \"#utility.yul\":9844:9863   */\n      swap1\n      pop\n        /* \"#utility.yul\":9503:9869   */\n      swap2\n      swap1\n      pop\n      jump\t// out\n        /* \"#utility.yul\":9875:10294   */\n    tag_52:\n        /* \"#utility.yul\":10041:10045   */\n      0x00\n        /* \"#utility.yul\":10079:10081   */\n      0x20\n        /* \"#utility.yul\":10068:10077   */\n      dup3\n        /* \"#utility.yul\":10064:10082   */\n      add\n        /* \"#utility.yul\":10056:10082   */\n      swap1\n      pop\n        /* \"#utility.yul\":10128:10137   */\n      dup2\n        /* \"#utility.yul\":10122:10126   */\n      dup2\n        /* \"#utility.yul\":10118:10138   */\n      sub\n        /* \"#utility.yul\":10114:10115   */\n      0x00\n        /* \"#utility.yul\":10103:10112   */\n      dup4\n        /* \"#utility.yul\":10099:10116   */\n      add\n        /* \"#utility.yul\":10092:10139   */\n      mstore\n        /* \"#utility.yul\":10156:10287   */\n      tag_225\n        /* \"#utility.yul\":10282:10286   */\n      dup2\n        /* \"#utility.yul\":10156:10287   */\n      tag_114\n      jump\t// in\n    tag_225:\n        /* \"#utility.yul\":10148:10287   */\n      swap1\n      pop\n        /* \"#utility.yul\":9875:10294   */\n      swap2\n      swap1\n      pop\n      jump\t// out\n        /* \"#utility.yul\":10300:10480   */\n    tag_115:\n        /* \"#utility.yul\":10348:10425   */\n      0x4e487b7100000000000000000000000000000000000000000000000000000000\n        /* \"#utility.yul\":10345:10346   */\n      0x00\n        /* \"#utility.yul\":10338:10426   */\n      mstore\n        /* \"#utility.yul\":10445:10449   */\n      0x41\n        /* \"#utility.yul\":10442:10443   */\n      0x04\n        /* \"#utility.yul\":10435:10450   */\n      mstore\n        /* \"#utility.yul\":10469:10473   */\n      0x24\n        /* \"#utility.yul\":10466:10467   */\n      0x00\n        /* \"#utility.yul\":10459:10474   */\n      revert\n        /* \"#utility.yul\":10486:10666   */\n    tag_116:\n        /* \"#utility.yul\":10534:10611   */\n      0x4e487b7100000000000000000000000000000000000000000000000000000000\n        /* \"#utility.yul\":10531:10532   */\n      0x00\n        /* \"#utility.yul\":10524:10612   */\n      mstore\n        /* \"#utility.yul\":10631:10635   */\n      0x22\n        /* \"#utility.yul\":10628:10629   */\n      0x04\n        /* \"#utility.yul\":10621:10636   */\n      mstore\n        /* \"#utility.yul\":10655:10659   */\n      0x24\n        /* \"#utility.yul\":10652:10653   */\n      0x00\n        /* \"#utility.yul\":10645:10660   */\n      revert\n        /* \"#utility.yul\":10672:10992   */\n    tag_76:\n        /* \"#utility.yul\":10716:10722   */\n      0x00\n        /* \"#utility.yul\":10753:10754   */\n      0x02\n        /* \"#utility.yul\":10747:10751   */\n      dup3\n        /* \"#utility.yul\":10743:10755   */\n      div\n        /* \"#utility.yul\":10733:10755   */\n      swap1\n      pop\n        /* \"#utility.yul\":10800:10801   */\n      0x01\n        /* \"#utility.yul\":10794:10798   */\n      dup3\n        /* \"#utility.yul\":10790:10802   */\n      and\n        /* \"#utility.yul\":10821:10839   */\n      dup1\n        /* \"#utility.yul\":10811:10892   */\n      tag_229\n      jumpi\n        /* \"#utility.yul\":10877:10881   */\n      0x7f\n        /* \"#utility.yul\":10869:10875   */\n      dup3\n        /* \"#utility.yul\":10865:10882   */\n      and\n        /* \"#utility.yul\":10855:10882   */\n      swap2\n      pop\n        /* \"#utility.yul\":10811:10892   */\n    tag_229:\n        /* \"#utility.yul\":10939:10941   */\n      0x20\n        /* \"#utility.yul\":10931:10937   */\n      dup3\n        /* \"#utility.yul\":10928:10942   */\n      lt\n        /* \"#utility.yul\":10908:10926   */\n      dup2\n        /* \"#utility.yul\":10905:10943   */\n      sub\n        /* \"#utility.yul\":10902:10986   */\n      tag_230\n      jumpi\n        /* \"#utility.yul\":10958:10976   */\n      tag_231\n      tag_116\n      jump\t// in\n    tag_231:\n        /* \"#utility.yul\":10902:10986   */\n    tag_230:\n        /* \"#utility.yul\":10723:10992   */\n      pop\n        /* \"#utility.yul\":10672:10992   */\n      swap2\n      swap1\n      pop\n      jump\t// out\n        /* \"#utility.yul\":10998:11139   */\n    tag_117:\n        /* \"#utility.yul\":11047:11051   */\n      0x00\n        /* \"#utility.yul\":11070:11073   */\n      dup2\n        /* \"#utility.yul\":11062:11073   */\n      swap1\n      pop\n        /* \"#utility.yul\":11093:11096   */\n      dup2\n        /* \"#utility.yul\":11090:11091   */\n      0x00\n        /* \"#utility.yul\":11083:11097   */\n      mstore\n        /* \"#utility.yul\":11127:11131   */\n      0x20\n        /* \"#utility.yul\":11124:11125   */\n      0x00\n        /* \"#utility.yul\":11114:11132   */\n      keccak256\n        /* \"#utility.yul\":11106:11132   */\n      swap1\n      pop\n        /* \"#utility.yul\":10998:11139   */\n      swap2\n      swap1\n      pop\n      jump\t// out\n        /* \"#utility.yul\":11145:11238   */\n    tag_118:\n        /* \"#utility.yul\":11182:11188   */\n      0x00\n        /* \"#utility.yul\":11229:11231   */\n      0x20\n        /* \"#utility.yul\":11224:11226   */\n      0x1f\n        /* \"#utility.yul\":11217:11222   */\n      dup4\n        /* \"#utility.yul\":11213:11227   */\n      add\n        /* \"#utility.yul\":11209:11232   */\n      div\n        /* \"#utility.yul\":11199:11232   */\n      swap1\n      pop\n        /* \"#utility.yul\":11145:11238   */\n      swap2\n      swap1\n      pop\n      jump\t// out\n        /* \"#utility.yul\":11244:11351   */\n    tag_119:\n        /* \"#utility.yul\":11288:11296   */\n      0x00\n        /* \"#utility.yul\":11338:11343   */\n      dup3\n        /* \"#utility.yul\":11332:11336   */\n      dup3\n        /* \"#utility.yul\":11328:11344   */\n      shl\n        /* \"#utility.yul\":11307:11344   */\n      swap1\n      pop\n        /* \"#utility.yul\":11244:11351   */\n      swap3\n      swap2\n      pop\n      pop\n      jump\t// out\n        /* \"#utility.yul\":11357:11750   */\n    tag_120:\n        /* \"#utility.yul\":11426:11432   */\n      0x00\n        /* \"#utility.yul\":11476:11477   */\n      0x08\n        /* \"#utility.yul\":11464:11474   */\n      dup4\n        /* \"#utility.yul\":11460:11478   */\n      mul\n        /* \"#utility.yul\":11499:11596   */\n      tag_236\n        /* \"#utility.yul\":11529:11595   */\n      0xffffffffffffffffffffffffffffffffffffffffffffffffffffffffffffffff\n        /* \"#utility.yul\":11518:11527   */\n      dup3\n        /* \"#utility.yul\":11499:11596   */\n      tag_119\n      jump\t// in\n    tag_236:\n        /* \"#utility.yul\":11617:11656   */\n      tag_237\n        /* \"#utility.yul\":11647:11655   */\n      dup7\n        /* \"#utility.yul\":11636:11645   */\n      dup4\n        /* \"#utility.yul\":11617:11656   */\n      tag_119\n      jump\t// in\n    tag_237:\n        /* \"#utility.yul\":11605:11656   */\n      swap6\n      pop\n        /* \"#utility.yul\":11689:11693   */\n      dup1\n        /* \"#utility.yul\":11685:11694   */\n      not\n        /* \"#utility.yul\":11678:11683   */\n      dup5\n        /* \"#utility.yul\":11674:11695   */\n      and\n        /* \"#utility.yul\":11665:11695   */\n      swap4\n      pop\n        /* \"#utility.yul\":11738:11742   */\n      dup1\n        /* \"#utility.yul\":11728:11736   */\n      dup7\n        /* \"#utility.yul\":11724:11743   */\n      and\n        /* \"#utility.yul\":11717:11722   */\n      dup5\n        /* \"#utility.yul\":11714:11744   */\n      or\n        /* \"#utility.yul\":11704:11744   */\n      swap3\n      pop\n        /* \"#utility.yul\":11433:11750   */\n      pop\n      pop\n        /* \"#utility.yul\":11357:11750   */\n      swap4\n      swap3\n      pop\n      pop\n      pop\n      jump\t// out\n        /* \"#utility.yul\":11756:11816   */\n    tag_121:\n        /* \"#utility.yul\":11784:11787   */\n      0x00\n        /* \"#utility.yul\":11805:11810   */\n      dup2\n        /* \"#utility.yul\":11798:11810   */\n      swap1\n      pop\n        /* \"#utility.yul\":11756:11816   */\n      swap2\n      swap1\n      pop\n      jump\t// out\n        /* \"#utility.yul\":11822:11964   */\n    tag_122:\n        /* \"#utility.yul\":11872:11881   */\n      0x00\n        /* \"#utility.yul\":11905:11958   */\n      tag_240\n        /* \"#utility.yul\":11923:11957   */\n      tag_241\n        /* \"#utility.yul\":11932:11956   */\n      tag_242\n        /* \"#utility.yul\":11950:11955   */\n      dup5\n        /* \"#utility.yul\":11932:11956   */\n      tag_95\n      jump\t// in\n    tag_242:\n        /* \"#utility.yul\":11923:11957   */\n      tag_121\n      jump\t// in\n    tag_241:\n        /* \"#utility.yul\":11905:11958   */\n      tag_95\n      jump\t// in\n    tag_240:\n        /* \"#utility.yul\":11892:11958   */\n      swap1\n      pop\n        /* \"#utility.yul\":11822:11964   */\n      swap2\n      swap1\n      pop\n      jump\t// out\n        /* \"#utility.yul\":11970:12045   */\n    tag_123:\n        /* \"#utility.yul\":12013:12016   */\n      0x00\n        /* \"#utility.yul\":12034:12039   */\n      dup2\n        /* \"#utility.yul\":12027:12039   */\n      swap1\n      pop\n        /* \"#utility.yul\":11970:12045   */\n      swap2\n      swap1\n      pop\n      jump\t// out\n        /* \"#utility.yul\":12051:12320   */\n    tag_124:\n        /* \"#utility.yul\":12161:12200   */\n      tag_245\n        /* \"#utility.yul\":12192:12199   */\n      dup4\n        /* \"#utility.yul\":12161:12200   */\n      tag_122\n      jump\t// in\n    tag_245:\n        /* \"#utility.yul\":12222:12313   */\n      tag_246\n        /* \"#utility.yul\":12271:12312   */\n      tag_247\n        /* \"#utility.yul\":12295:12311   */\n      dup3\n        /* \"#utility.yul\":12271:12312   */\n      tag_123\n      jump\t// in\n    tag_247:\n        /* \"#utility.yul\":12263:12269   */\n      dup5\n        /* \"#utility.yul\":12256:12260   */\n      dup5\n        /* \"#utility.yul\":12250:12261   */\n      sload\n        /* \"#utility.yul\":12222:12313   */\n      tag_120\n      jump\t// in\n    tag_246:\n        /* \"#utility.yul\":12216:12220   */\n      dup3\n        /* \"#utility.yul\":12209:12314   */\n      sstore\n        /* \"#utility.yul\":12127:12320   */\n      pop\n        /* \"#utility.yul\":12051:12320   */\n      pop\n      pop\n      pop\n      jump\t// out\n        /* \"#utility.yul\":12326:12399   */\n    tag_125:\n        /* \"#utility.yul\":12371:12374   */\n      0x00\n        /* \"#utility.yul\":12392:12393   */\n      0x00\n        /* \"#utility.yul\":12385:12393   */\n      swap1\n      pop\n        /* \"#utility.yul\":12326:12399   */\n      swap1\n      jump\t// out\n        /* \"#utility.yul\":12405:12594   */\n    tag_126:\n        /* \"#utility.yul\":12482:12514   */\n      tag_250\n      tag_125\n      jump\t// in\n    tag_250:\n        /* \"#utility.yul\":12523:12588   */\n      tag_251\n        /* \"#utility.yul\":12581:12587   */\n      dup2\n        /* \"#utility.yul\":12573:12579   */\n      dup5\n        /* \"#utility.yul\":12567:12571   */\n      dup5\n        /* \"#utility.yul\":12523:12588   */\n      tag_124\n      jump\t// in\n    tag_251:\n        /* \"#utility.yul\":12458:12594   */\n      pop\n        /* \"#utility.yul\":12405:12594   */\n      pop\n      pop\n      jump\t// out\n        /* \"#utility.yul\":12600:12786   */\n    tag_127:\n        /* \"#utility.yul\":12660:12780   */\n    tag_253:\n        /* \"#utility.yul\":12677:12680   */\n      dup2\n        /* \"#utility.yul\":12670:12675   */\n      dup2\n        /* \"#utility.yul\":12667:12681   */\n      lt\n        /* \"#utility.yul\":12660:12780   */\n      iszero\n      tag_255\n      jumpi\n        /* \"#utility.yul\":12731:12770   */\n      tag_256\n        /* \"#utility.yul\":12768:12769   */\n      0x00\n        /* \"#utility.yul\":12761:12766   */\n      dup3\n        /* \"#utility.yul\":12731:12770   */\n      tag_126\n      jump\t// in\n    tag_256:\n        /* \"#utility.yul\":12704:12705   */\n      0x01\n        /* \"#utility.yul\":12697:12702   */\n      dup2\n        /* \"#utility.yul\":12693:12706   */\n      add\n        /* \"#utility.yul\":12684:12706   */\n      swap1\n      pop\n        /* \"#utility.yul\":12660:12780   */\n      jump(tag_253)\n    tag_255:\n        /* \"#utility.yul\":12600:12786   */\n      pop\n      pop\n      jump\t// out\n        /* \"#utility.yul\":12792:13335   */\n    tag_128:\n        /* \"#utility.yul\":12893:12895   */\n      0x1f\n        /* \"#utility.yul\":12888:12891   */\n      dup3\n        /* \"#utility.yul\":12885:12896   */\n      gt\n        /* \"#utility.yul\":12882:13328   */\n      iszero\n      tag_258\n      jumpi\n        /* \"#utility.yul\":12927:12965   */\n      tag_259\n        /* \"#utility.yul\":12959:12964   */\n      dup2\n        /* \"#utility.yul\":12927:12965   */\n      tag_117\n      jump\t// in\n    tag_259:\n        /* \"#utility.yul\":13011:13040   */\n      tag_260\n        /* \"#utility.yul\":13029:13039   */\n      dup5\n        /* \"#utility.yul\":13011:13040   */\n      tag_118\n      jump\t// in\n    tag_260:\n        /* \"#utility.yul\":13001:13009   */\n      dup2\n        /* \"#utility.yul\":12997:13041   */\n      add\n        /* \"#utility.yul\":13194:13196   */\n      0x20\n        /* \"#utility.yul\":13182:13192   */\n      dup6\n        /* \"#utility.yul\":13179:13197   */\n      lt\n        /* \"#utility.yul\":13176:13225   */\n      iszero\n      tag_261\n      jumpi\n        /* \"#utility.yul\":13215:13223   */\n      dup2\n        /* \"#utility.yul\":13200:13223   */\n      swap1\n      pop\n        /* \"#utility.yul\":13176:13225   */\n    tag_261:\n        /* \"#utility.yul\":13238:13318   */\n      tag_262\n        /* \"#utility.yul\":13294:13316   */\n      tag_263\n        /* \"#utility.yul\":13312:13315   */\n      dup6\n        /* \"#utility.yul\":13294:13316   */\n      tag_118\n      jump\t// in\n    tag_263:\n        /* \"#utility.yul\":13284:13292   */\n      dup4\n        /* \"#utility.yul\":13280:13317   */\n      add\n        /* \"#utility.yul\":13267:13278   */\n      dup3\n        /* \"#utility.yul\":13238:13318   */\n      tag_127\n      jump\t// in\n    tag_262:\n        /* \"#utility.yul\":12897:13328   */\n      pop\n      pop\n        /* \"#utility.yul\":12882:13328   */\n    tag_258:\n        /* \"#utility.yul\":12792:13335   */\n      pop\n      pop\n      pop\n      jump\t// out\n        /* \"#utility.yul\":13341:13458   */\n    tag_129:\n        /* \"#utility.yul\":13395:13403   */\n      0x00\n        /* \"#utility.yul\":13445:13450   */\n      dup3\n        /* \"#utility.yul\":13439:13443   */\n      dup3\n        /* \"#utility.yul\":13435:13451   */\n      shr\n        /* \"#utility.yul\":13414:13451   */\n      swap1\n      pop\n        /* \"#utility.yul\":13341:13458   */\n      swap3\n      swap2\n      pop\n      pop\n      jump\t// out\n        /* \"#utility.yul\":13464:13633   */\n    tag_130:\n        /* \"#utility.yul\":13508:13514   */\n      0x00\n        /* \"#utility.yul\":13541:13592   */\n      tag_266\n        /* \"#utility.yul\":13589:13590   */\n      0x00\n        /* \"#utility.yul\":13585:13591   */\n      not\n        /* \"#utility.yul\":13577:13582   */\n      dup5\n        /* \"#utility.yul\":13574:13575   */\n      0x08\n        /* \"#utility.yul\":13570:13583   */\n      mul\n        /* \"#utility.yul\":13541:13592   */\n      tag_129\n      jump\t// in\n    tag_266:\n        /* \"#utility.yul\":13537:13593   */\n      not\n        /* \"#utility.yul\":13622:13626   */\n      dup1\n        /* \"#utility.yul\":13616:13620   */\n      dup4\n        /* \"#utility.yul\":13612:13627   */\n      and\n        /* \"#utility.yul\":13602:13627   */\n      swap2\n      pop\n        /* \"#utility.yul\":13515:13633   */\n      pop\n        /* \"#utility.yul\":13464:13633   */\n      swap3\n      swap2\n      pop\n      pop\n      jump\t// out\n        /* \"#utility.yul\":13638:13933   */\n    tag_131:\n        /* \"#utility.yul\":13714:13718   */\n      0x00\n        /* \"#utility.yul\":13860:13889   */\n      tag_268\n        /* \"#utility.yul\":13885:13888   */\n      dup4\n        /* \"#utility.yul\":13879:13883   */\n      dup4\n        /* \"#utility.yul\":13860:13889   */\n      tag_130\n      jump\t// in\n    tag_268:\n        /* \"#utility.yul\":13852:13889   */\n      swap2\n      pop\n        /* \"#utility.yul\":13922:13925   */\n      dup3\n        /* \"#utility.yul\":13919:13920   */\n      0x02\n        /* \"#utility.yul\":13915:13926   */\n      mul\n        /* \"#utility.yul\":13909:13913   */\n      dup3\n        /* \"#utility.yul\":13906:13927   */\n      or\n        /* \"#utility.yul\":13898:13927   */\n      swap1\n      pop\n        /* \"#utility.yul\":13638:13933   */\n      swap3\n      swap2\n      pop\n      pop\n      jump\t// out\n        /* \"#utility.yul\":13938:15333   */\n    tag_56:\n        /* \"#utility.yul\":14055:14092   */\n      tag_270\n        /* \"#utility.yul\":14088:14091   */\n      dup3\n        /* \"#utility.yul\":14055:14092   */\n      tag_97\n      jump\t// in\n    tag_270:\n        /* \"#utility.yul\":14157:14175   */\n      0xffffffffffffffff\n        /* \"#utility.yul\":14149:14155   */\n      dup2\n        /* \"#utility.yul\":14146:14176   */\n      gt\n        /* \"#utility.yul\":14143:14199   */\n      iszero\n      tag_271\n      jumpi\n        /* \"#utility.yul\":14179:14197   */\n      tag_272\n      tag_115\n      jump\t// in\n    tag_272:\n        /* \"#utility.yul\":14143:14199   */\n    tag_271:\n        /* \"#utility.yul\":14223:14261   */\n      tag_273\n        /* \"#utility.yul\":14255:14259   */\n      dup3\n        /* \"#utility.yul\":14249:14260   */\n      sload\n        /* \"#utility.yul\":14223:14261   */\n      tag_76\n      jump\t// in\n    tag_273:\n        /* \"#utility.yul\":14308:14375   */\n      tag_274\n        /* \"#utility.yul\":14368:14374   */\n      dup3\n        /* \"#utility.yul\":14360:14366   */\n      dup3\n        /* \"#utility.yul\":14354:14358   */\n      dup6\n        /* \"#utility.yul\":14308:14375   */\n      tag_128\n      jump\t// in\n    tag_274:\n        /* \"#utility.yul\":14402:14403   */\n      0x00\n        /* \"#utility.yul\":14426:14430   */\n      0x20\n        /* \"#utility.yul\":14413:14430   */\n      swap1\n      pop\n        /* \"#utility.yul\":14458:14460   */\n      0x1f\n        /* \"#utility.yul\":14450:14456   */\n      dup4\n        /* \"#utility.yul\":14447:14461   */\n      gt\n        /* \"#utility.yul\":14475:14476   */\n      0x01\n        /* \"#utility.yul\":14470:15088   */\n      dup2\n      eq\n      tag_276\n      jumpi\n        /* \"#utility.yul\":15132:15133   */\n      0x00\n        /* \"#utility.yul\":15149:15155   */\n      dup5\n        /* \"#utility.yul\":15146:15223   */\n      iszero\n      tag_277\n      jumpi\n        /* \"#utility.yul\":15198:15207   */\n      dup3\n        /* \"#utility.yul\":15193:15196   */\n      dup8\n        /* \"#utility.yul\":15189:15208   */\n      add\n        /* \"#utility.yul\":15183:15209   */\n      mload\n        /* \"#utility.yul\":15174:15209   */\n      swap1\n      pop\n        /* \"#utility.yul\":15146:15223   */\n    tag_277:\n        /* \"#utility.yul\":15249:15316   */\n      tag_278\n        /* \"#utility.yul\":15309:15315   */\n      dup6\n        /* \"#utility.yul\":15302:15307   */\n      dup3\n        /* \"#utility.yul\":15249:15316   */\n      tag_131\n      jump\t// in\n    tag_278:\n        /* \"#utility.yul\":15243:15247   */\n      dup7\n        /* \"#utility.yul\":15236:15317   */\n      sstore\n        /* \"#utility.yul\":15105:15327   */\n      pop\n        /* \"#utility.yul\":14440:15327   */\n      jump(tag_275)\n        /* \"#utility.yul\":14470:15088   */\n    tag_276:\n        /* \"#utility.yul\":14522:14526   */\n      0x1f\n        /* \"#utility.yul\":14518:14527   */\n      not\n        /* \"#utility.yul\":14510:14516   */\n      dup5\n        /* \"#utility.yul\":14506:14528   */\n      and\n        /* \"#utility.yul\":14556:14593   */\n      tag_279\n        /* \"#utility.yul\":14588:14592   */\n      dup7\n        /* \"#utility.yul\":14556:14593   */\n      tag_117\n      jump\t// in\n    tag_279:\n        /* \"#utility.yul\":14615:14616   */\n      0x00\n        /* \"#utility.yul\":14629:14837   */\n    tag_280:\n        /* \"#utility.yul\":14643:14650   */\n      dup3\n        /* \"#utility.yul\":14640:14641   */\n      dup2\n        /* \"#utility.yul\":14637:14651   */\n      lt\n        /* \"#utility.yul\":14629:14837   */\n      iszero\n      tag_282\n      jumpi\n        /* \"#utility.yul\":14722:14731   */\n      dup5\n        /* \"#utility.yul\":14717:14720   */\n      dup10\n        /* \"#utility.yul\":14713:14732   */\n      add\n        /* \"#utility.yul\":14707:14733   */\n      mload\n        /* \"#utility.yul\":14699:14705   */\n      dup3\n        /* \"#utility.yul\":14692:14734   */\n      sstore\n        /* \"#utility.yul\":14773:14774   */\n      0x01\n        /* \"#utility.yul\":14765:14771   */\n      dup3\n        /* \"#utility.yul\":14761:14775   */\n      add\n        /* \"#utility.yul\":14751:14775   */\n      swap2\n      pop\n        /* \"#utility.yul\":14820:14822   */\n      0x20\n        /* \"#utility.yul\":14809:14818   */\n      dup6\n        /* \"#utility.yul\":14805:14823   */\n      add\n        /* \"#utility.yul\":14792:14823   */\n      swap5\n      pop\n        /* \"#utility.yul\":14666:14670   */\n      0x20\n        /* \"#utility.yul\":14663:14664   */\n      dup2\n        /* \"#utility.yul\":14659:14671   */\n      add\n        /* \"#utility.yul\":14654:14671   */\n      swap1\n      pop\n        /* \"#utility.yul\":14629:14837   */\n      jump(tag_280)\n    tag_282:\n        /* \"#utility.yul\":14865:14871   */\n      dup7\n        /* \"#utility.yul\":14856:14863   */\n      dup4\n        /* \"#utility.yul\":14853:14872   */\n      lt\n        /* \"#utility.yul\":14850:15029   */\n      iszero\n      tag_283\n      jumpi\n        /* \"#utility.yul\":14923:14932   */\n      dup5\n        /* \"#utility.yul\":14918:14921   */\n      dup10\n        /* \"#utility.yul\":14914:14933   */\n      add\n        /* \"#utility.yul\":14908:14934   */\n      mload\n        /* \"#utility.yul\":14966:15014   */\n      tag_284\n        /* \"#utility.yul\":15008:15012   */\n      0x1f\n        /* \"#utility.yul\":15000:15006   */\n      dup10\n        /* \"#utility.yul\":14996:15013   */\n      and\n        /* \"#utility.yul\":14985:14994   */\n      dup3\n        /* \"#utility.yul\":14966:15014   */\n      tag_130\n      jump\t// in\n    tag_284:\n        /* \"#utility.yul\":14958:14964   */\n      dup4\n        /* \"#utility.yul\":14951:15015   */\n      sstore\n        /* \"#utility.yul\":14873:15029   */\n      pop\n        /* \"#utility.yul\":14850:15029   */\n    tag_283:\n        /* \"#utility.yul\":15075:15076   */\n      0x01\n        /* \"#utility.yul\":15071:15072   */\n      0x02\n        /* \"#utility.yul\":15063:15069   */\n      dup9\n        /* \"#utility.yul\":15059:15073   */\n      mul\n        /* \"#utility.yul\":15055:15077   */\n      add\n        /* \"#utility.yul\":15049:15053   */\n      dup9\n        /* \"#utility.yul\":15042:15078   */\n      sstore\n        /* \"#utility.yul\":14477:15088   */\n      pop\n      pop\n      pop\n        /* \"#utility.yul\":14440:15327   */\n    tag_275:\n      pop\n        /* \"#utility.yul\":14030:15333   */\n      pop\n      pop\n      pop\n        /* \"#utility.yul\":13938:15333   */\n      pop\n      pop\n      jump\t// out\n        /* \"#utility.yul\":15339:15519   */\n    tag_132:\n        /* \"#utility.yul\":15387:15464   */\n      0x4e487b7100000000000000000000000000000000000000000000000000000000\n        /* \"#utility.yul\":15384:15385   */\n      0x00\n        /* \"#utility.yul\":15377:15465   */\n      mstore\n        /* \"#utility.yul\":15484:15488   */\n      0x11\n        /* \"#utility.yul\":15481:15482   */\n      0x04\n        /* \"#utility.yul\":15474:15489   */\n      mstore\n        /* \"#utility.yul\":15508:15512   */\n      0x24\n        /* \"#utility.yul\":15505:15506   */\n      0x00\n        /* \"#utility.yul\":15498:15513   */\n      revert\n        /* \"#utility.yul\":15525:15719   */\n    tag_58:\n        /* \"#utility.yul\":15565:15569   */\n      0x00\n        /* \"#utility.yul\":15585:15605   */\n      tag_287\n        /* \"#utility.yul\":15603:15604   */\n      dup3\n        /* \"#utility.yul\":15585:15605   */\n      tag_95\n      jump\t// in\n    tag_287:\n        /* \"#utility.yul\":15580:15605   */\n      swap2\n      pop\n        /* \"#utility.yul\":15619:15639   */\n      tag_288\n        /* \"#utility.yul\":15637:15638   */\n      dup4\n        /* \"#utility.yul\":15619:15639   */\n      tag_95\n      jump\t// in\n    tag_288:\n        /* \"#utility.yul\":15614:15639   */\n      swap3\n      pop\n        /* \"#utility.yul\":15663:15664   */\n      dup3\n        /* \"#utility.yul\":15660:15661   */\n      dup3\n        /* \"#utility.yul\":15656:15665   */\n      sub\n        /* \"#utility.yul\":15648:15665   */\n      swap1\n      pop\n        /* \"#utility.yul\":15687:15688   */\n      dup2\n        /* \"#utility.yul\":15681:15685   */\n      dup2\n        /* \"#utility.yul\":15678:15689   */\n      gt\n        /* \"#utility.yul\":15675:15712   */\n      iszero\n      tag_289\n      jumpi\n        /* \"#utility.yul\":15692:15710   */\n      tag_290\n      tag_132\n      jump\t// in\n    tag_290:\n        /* \"#utility.yul\":15675:15712   */\n    tag_289:\n        /* \"#utility.yul\":15525:15719   */\n      swap3\n      swap2\n      pop\n      pop\n      jump\t// out\n        /* \"#utility.yul\":15725:15843   */\n    tag_133:\n        /* \"#utility.yul\":15812:15836   */\n      tag_292\n        /* \"#utility.yul\":15830:15835   */\n      dup2\n        /* \"#utility.yul\":15812:15836   */\n      tag_95\n      jump\t// in\n    tag_292:\n        /* \"#utility.yul\":15807:15810   */\n      dup3\n        /* \"#utility.yul\":15800:15837   */\n      mstore\n        /* \"#utility.yul\":15725:15843   */\n      pop\n      pop\n      jump\t// out\n        /* \"#utility.yul\":15849:16071   */\n    tag_60:\n        /* \"#utility.yul\":15942:15946   */\n      0x00\n        /* \"#utility.yul\":15980:15982   */\n      0x20\n        /* \"#utility.yul\":15969:15978   */\n      dup3\n        /* \"#utility.yul\":15965:15983   */\n      add\n        /* \"#utility.yul\":15957:15983   */\n      swap1\n      pop\n        /* \"#utility.yul\":15993:16064   */\n      tag_294\n        /* \"#utility.yul\":16061:16062   */\n      0x00\n        /* \"#utility.yul\":16050:16059   */\n      dup4\n        /* \"#utility.yul\":16046:16063   */\n      add\n        /* \"#utility.yul\":16037:16043   */\n      dup5\n        /* \"#utility.yul\":15993:16064   */\n      tag_133\n      jump\t// in\n    tag_294:\n        /* \"#utility.yul\":15849:16071   */\n      swap3\n      swap2\n      pop\n      pop\n      jump\t// out\n        /* \"#utility.yul\":16077:16240   */\n    tag_134:\n        /* \"#utility.yul\":16217:16232   */\n      0x4163636573732064656e69656400000000000000000000000000000000000000\n        /* \"#utility.yul\":16213:16214   */\n      0x00\n        /* \"#utility.yul\":16205:16211   */\n      dup3\n        /* \"#utility.yul\":16201:16215   */\n      add\n        /* \"#utility.yul\":16194:16233   */\n      mstore\n        /* \"#utility.yul\":16077:16240   */\n      pop\n      jump\t// out\n        /* \"#utility.yul\":16246:16612   */\n    tag_135:\n        /* \"#utility.yul\":16388:16391   */\n      0x00\n        /* \"#utility.yul\":16409:16476   */\n      tag_297\n        /* \"#utility.yul\":16473:16475   */\n      0x0d\n        /* \"#utility.yul\":16468:16471   */\n      dup4\n        /* \"#utility.yul\":16409:16476   */\n      tag_110\n      jump\t// in\n    tag_297:\n        /* \"#utility.yul\":16402:16476   */\n      swap2\n      pop\n        /* \"#utility.yul\":16485:16578   */\n      tag_298\n        /* \"#utility.yul\":16574:16577   */\n      dup3\n        /* \"#utility.yul\":16485:16578   */\n      tag_134\n      jump\t// in\n    tag_298:\n        /* \"#utility.yul\":16603:16605   */\n      0x20\n        /* \"#utility.yul\":16598:16601   */\n      dup3\n        /* \"#utility.yul\":16594:16606   */\n      add\n        /* \"#utility.yul\":16587:16606   */\n      swap1\n      pop\n        /* \"#utility.yul\":16246:16612   */\n      swap2\n      swap1\n      pop\n      jump\t// out\n        /* \"#utility.yul\":16618:17037   */\n    tag_71:\n        /* \"#utility.yul\":16784:16788   */\n      0x00\n        /* \"#utility.yul\":16822:16824   */\n      0x20\n        /* \"#utility.yul\":16811:16820   */\n      dup3\n        /* \"#utility.yul\":16807:16825   */\n      add\n        /* \"#utility.yul\":16799:16825   */\n      swap1\n      pop\n        /* \"#utility.yul\":16871:16880   */\n      dup2\n        /* \"#utility.yul\":16865:16869   */\n      dup2\n        /* \"#utility.yul\":16861:16881   */\n      sub\n        /* \"#utility.yul\":16857:16858   */\n      0x00\n        /* \"#utility.yul\":16846:16855   */\n      dup4\n        /* \"#utility.yul\":16842:16859   */\n      add\n        /* \"#utility.yul\":16835:16882   */\n      mstore\n        /* \"#utility.yul\":16899:17030   */\n      tag_300\n        /* \"#utility.yul\":17025:17029   */\n      dup2\n        /* \"#utility.yul\":16899:17030   */\n      tag_135\n      jump\t// in\n    tag_300:\n        /* \"#utility.yul\":16891:17030   */\n      swap1\n      pop\n        /* \"#utility.yul\":16618:17037   */\n      swap2\n      swap1\n      pop\n      jump\t// out\n\n    auxdata: 0xa2646970667358221220335d4b45de214034477be638f18bae45844543cbc76a07b073527fc76f9263fd64736f6c634300081e0033\n}\n",
				"bytecode": {
					"linkReferences": {},
					"object": "6080604052348015600e575f5ffd5b50335f5f6101000a81548173ffffffffffffffffffffffffffffffffffffffff021916908373ffffffffffffffffffffffffffffffffffffffff16021790555061132f8061005b5f395ff3fe608060405234801561000f575f5ffd5b5060043610610086575f3560e01c806398fc90e91161005957806398fc90e9146100fa578063a0076e8414610116578063a9583c2214610146578063f851a4401461017657610086565b80630ae5e7391461008a5780634780468f146100a657806366858ec8146100c257806385e68531146100de575b5f5ffd5b6100a4600480360381019061009f9190610b2d565b610194565b005b6100c060048036038101906100bb9190610b2d565b610281565b005b6100dc60048036038101906100d79190610bb9565b610366565b005b6100f860048036038101906100f39190610b2d565b6105e7565b005b610114600480360381019061010f9190610b2d565b6106d3565b005b610130600480360381019061012b9190610b2d565b6107b8565b60405161013d9190610db5565b60405180910390f35b610160600480360381019061015b9190610b2d565b610a8a565b60405161016d9190610def565b60405180910390f35b61017e610aa7565b60405161018b9190610e17565b60405180910390f35b600160035f3373ffffffffffffffffffffffffffffffffffffffff1673ffffffffffffffffffffffffffffffffffffffff1681526020019081526020015f205f8373ffffffffffffffffffffffffffffffffffffffff1673ffffffffffffffffffffffffffffffffffffffff1681526020019081526020015f205f6101000a81548160ff0219169083151502179055508073ffffffffffffffffffffffffffffffffffffffff163373ffffffffffffffffffffffffffffffffffffffff167f9f520b3bfc56d06f7065d10b4683b3f57ac8895d5026cd176dee95ce1454cb8d60405160405180910390a350565b5f5f9054906101000a900473ffffffffffffffffffffffffffffffffffffffff1673ffffffffffffffffffffffffffffffffffffffff163373ffffffffffffffffffffffffffffffffffffffff161461030f576040517f08c379a000000000000000000000000000000000000000000000000000000000815260040161030690610e8a565b60405180910390fd5b6001805f8373ffffffffffffffffffffffffffffffffffffffff1673ffffffffffffffffffffffffffffffffffffffff1681526020019081526020015f205f6101000a81548160ff02191690831515021790555050565b60015f3373ffffffffffffffffffffffffffffffffffffffff1673ffffffffffffffffffffffffffffffffffffffff1681526020019081526020015f205f9054906101000a900460ff166103ef576040517f08c379a00000000000000000000000000000000000000000000000000000000081526004016103e690610ef2565b60405180910390fd5b5f604051806060016040528042815260200184848080601f0160208091040260200160405190810160405280939291908181526020018383808284375f81840152601f19601f8201169050808301925050505050505081526020013373ffffffffffffffffffffffffffffffffffffffff16815250905060025f8573ffffffffffffffffffffffffffffffffffffffff1673ffffffffffffffffffffffffffffffffffffffff1681526020019081526020015f2081908060018154018082558091505060019003905f5260205f2090600302015f909190919091505f820151815f015560208201518160010190816104e7919061113a565b506040820151816002015f6101000a81548173ffffffffffffffffffffffffffffffffffffffff021916908373ffffffffffffffffffffffffffffffffffffffff16021790555050503373ffffffffffffffffffffffffffffffffffffffff168473ffffffffffffffffffffffffffffffffffffffff167ffab51555fe575ed9125c36207ba251b154757166d29b3a412d1015e3f9a3da0e600160025f8973ffffffffffffffffffffffffffffffffffffffff1673ffffffffffffffffffffffffffffffffffffffff1681526020019081526020015f20805490506105cc9190611236565b6040516105d99190611278565b60405180910390a350505050565b5f60035f3373ffffffffffffffffffffffffffffffffffffffff1673ffffffffffffffffffffffffffffffffffffffff1681526020019081526020015f205f8373ffffffffffffffffffffffffffffffffffffffff1673ffffffffffffffffffffffffffffffffffffffff1681526020019081526020015f205f6101000a81548160ff0219169083151502179055508073ffffffffffffffffffffffffffffffffffffffff163373ffffffffffffffffffffffffffffffffffffffff167f825c8be24eb0df19500f63e86c29e7d0d951e73056b889b891d85e40938d9b6e60405160405180910390a350565b5f5f9054906101000a900473ffffffffffffffffffffffffffffffffffffffff1673ffffffffffffffffffffffffffffffffffffffff163373ffffffffffffffffffffffffffffffffffffffff1614610761576040517f08c379a000000000000000000000000000000000000000000000000000000000815260040161075890610e8a565b60405180910390fd5b5f60015f8373ffffffffffffffffffffffffffffffffffffffff1673ffffffffffffffffffffffffffffffffffffffff1681526020019081526020015f205f6101000a81548160ff02191690831515021790555050565b60608173ffffffffffffffffffffffffffffffffffffffff163373ffffffffffffffffffffffffffffffffffffffff161480610875575060035f8373ffffffffffffffffffffffffffffffffffffffff1673ffffffffffffffffffffffffffffffffffffffff1681526020019081526020015f205f3373ffffffffffffffffffffffffffffffffffffffff1673ffffffffffffffffffffffffffffffffffffffff1681526020019081526020015f205f9054906101000a900460ff165b806108c6575060015f3373ffffffffffffffffffffffffffffffffffffffff1673ffffffffffffffffffffffffffffffffffffffff1681526020019081526020015f205f9054906101000a900460ff165b610905576040517f08c379a00000000000000000000000000000000000000000000000000000000081526004016108fc906112db565b60405180910390fd5b60025f8373ffffffffffffffffffffffffffffffffffffffff1673ffffffffffffffffffffffffffffffffffffffff1681526020019081526020015f20805480602002602001604051908101604052809291908181526020015f905b82821015610a7f578382905f5260205f2090600302016040518060600160405290815f820154815260200160018201805461099b90610f6a565b80601f01602080910402602001604051908101604052809291908181526020018280546109c790610f6a565b8015610a125780601f106109e957610100808354040283529160200191610a12565b820191905f5260205f20905b8154815290600101906020018083116109f557829003601f168201915b50505050508152602001600282015f9054906101000a900473ffffffffffffffffffffffffffffffffffffffff1673ffffffffffffffffffffffffffffffffffffffff1673ffffffffffffffffffffffffffffffffffffffff168152505081526020019060010190610961565b505050509050919050565b6001602052805f5260405f205f915054906101000a900460ff1681565b5f5f9054906101000a900473ffffffffffffffffffffffffffffffffffffffff1681565b5f5ffd5b5f5ffd5b5f73ffffffffffffffffffffffffffffffffffffffff82169050919050565b5f610afc82610ad3565b9050919050565b610b0c81610af2565b8114610b16575f5ffd5b50565b5f81359050610b2781610b03565b92915050565b5f60208284031215610b4257610b41610acb565b5b5f610b4f84828501610b19565b91505092915050565b5f5ffd5b5f5ffd5b5f5ffd5b5f5f83601f840112610b7957610b78610b58565b5b8235905067ffffffffffffffff811115610b9657610b95610b5c565b5b602083019150836001820283011115610bb257610bb1610b60565b5b9250929050565b5f5f5f60408486031215610bd057610bcf610acb565b5b5f610bdd86828701610b19565b935050602084013567ffffffffffffffff811115610bfe57610bfd610acf565b5b610c0a86828701610b64565b92509250509250925092565b5f81519050919050565b5f82825260208201905092915050565b5f819050602082019050919050565b5f819050919050565b610c5181610c3f565b82525050565b5f81519050919050565b5f82825260208201905092915050565b8281835e5f83830152505050565b5f601f19601f8301169050919050565b5f610c9982610c57565b610ca38185610c61565b9350610cb3818560208601610c71565b610cbc81610c7f565b840191505092915050565b610cd081610af2565b82525050565b5f606083015f830151610ceb5f860182610c48565b5060208301518482036020860152610d038282610c8f565b9150506040830151610d186040860182610cc7565b508091505092915050565b5f610d2e8383610cd6565b905092915050565b5f602082019050919050565b5f610d4c82610c16565b610d568185610c20565b935083602082028501610d6885610c30565b805f5b85811015610da35784840389528151610d848582610d23565b9450610d8f83610d36565b925060208a01995050600181019050610d6b565b50829750879550505050505092915050565b5f6020820190508181035f830152610dcd8184610d42565b905092915050565b5f8115159050919050565b610de981610dd5565b82525050565b5f602082019050610e025f830184610de0565b92915050565b610e1181610af2565b82525050565b5f602082019050610e2a5f830184610e08565b92915050565b5f82825260208201905092915050565b7f4f6e6c792061646d696e000000000000000000000000000000000000000000005f82015250565b5f610e74600a83610e30565b9150610e7f82610e40565b602082019050919050565b5f6020820190508181035f830152610ea181610e68565b9050919050565b7f4f6e6c7920646f63746f727300000000000000000000000000000000000000005f82015250565b5f610edc600c83610e30565b9150610ee782610ea8565b602082019050919050565b5f6020820190508181035f830152610f0981610ed0565b9050919050565b7f4e487b71000000000000000000000000000000000000000000000000000000005f52604160045260245ffd5b7f4e487b71000000000000000000000000000000000000000000000000000000005f52602260045260245ffd5b5f6002820490506001821680610f8157607f821691505b602082108103610f9457610f93610f3d565b5b50919050565b5f819050815f5260205f209050919050565b5f6020601f8301049050919050565b5f82821b905092915050565b5f60088302610ff67fffffffffffffffffffffffffffffffffffffffffffffffffffffffffffffffff82610fbb565b6110008683610fbb565b95508019841693508086168417925050509392505050565b5f819050919050565b5f61103b61103661103184610c3f565b611018565b610c3f565b9050919050565b5f819050919050565b61105483611021565b61106861106082611042565b848454610fc7565b825550505050565b5f5f905090565b61107f611070565b61108a81848461104b565b505050565b5b818110156110ad576110a25f82611077565b600181019050611090565b5050565b601f8211156110f2576110c381610f9a565b6110cc84610fac565b810160208510156110db578190505b6110ef6110e785610fac565b83018261108f565b50505b505050565b5f82821c905092915050565b5f6111125f19846008026110f7565b1980831691505092915050565b5f61112a8383611103565b9150826002028217905092915050565b61114382610c57565b67ffffffffffffffff81111561115c5761115b610f10565b5b6111668254610f6a565b6111718282856110b1565b5f60209050601f8311600181146111a2575f8415611190578287015190505b61119a858261111f565b865550611201565b601f1984166111b086610f9a565b5f5b828110156111d7578489015182556001820191506020850194506020810190506111b2565b868310156111f457848901516111f0601f891682611103565b8355505b6001600288020188555050505b505050505050565b7f4e487b71000000000000000000000000000000000000000000000000000000005f52601160045260245ffd5b5f61124082610c3f565b915061124b83610c3f565b925082820390508181111561126357611262611209565b5b92915050565b61127281610c3f565b82525050565b5f60208201905061128b5f830184611269565b92915050565b7f4163636573732064656e696564000000000000000000000000000000000000005f82015250565b5f6112c5600d83610e30565b91506112d082611291565b602082019050919050565b5f6020820190508181035f8301526112f2816112b9565b905091905056fea2646970667358221220335d4b45de214034477be638f18bae45844543cbc76a07b073527fc76f9263fd64736f6c634300081e0033",
					"opcodes": "PUSH1 0x80 PUSH1 0x40 MSTORE CALLVALUE DUP1 ISZERO PUSH1 0xE JUMPI PUSH0 PUSH0 REVERT JUMPDEST POP CALLER PUSH0 PUSH0 PUSH2 0x100 EXP DUP2 SLOAD DUP2 PUSH20 0xFFFFFFFFFFFFFFFFFFFFFFFFFFFFFFFFFFFFFFFF MUL NOT AND SWAP1 DUP4 PUSH20 0xFFFFFFFFFFFFFFFFFFFFFFFFFFFFFFFFFFFFFFFF AND MUL OR SWAP1 SSTORE POP PUSH2 0x132F DUP1 PUSH2 0x5B PUSH0 CODECOPY PUSH0 RETURN INVALID PUSH1 0x80 PUSH1 0x40 MSTORE CALLVALUE DUP1 ISZERO PUSH2 0xF JUMPI PUSH0 PUSH0 REVERT JUMPDEST POP PUSH1 0x4 CALLDATASIZE LT PUSH2 0x86 JUMPI PUSH0 CALLDATALOAD PUSH1 0xE0 SHR DUP1 PUSH4 0x98FC90E9 GT PUSH2 0x59 JUMPI DUP1 PUSH4 0x98FC90E9 EQ PUSH2 0xFA JUMPI DUP1 PUSH4 0xA0076E84 EQ PUSH2 0x116 JUMPI DUP1 PUSH4 0xA9583C22 EQ PUSH2 0x146 JUMPI DUP1 PUSH4 0xF851A440 EQ PUSH2 0x176 JUMPI PUSH2 0x86 JUMP JUMPDEST DUP1 PUSH4 0xAE5E739 EQ PUSH2 0x8A JUMPI DUP1 PUSH4 0x4780468F EQ PUSH2 0xA6 JUMPI DUP1 PUSH4 0x66858EC8 EQ PUSH2 0xC2 JUMPI DUP1 PUSH4 0x85E68531 EQ PUSH2 0xDE JUMPI JUMPDEST PUSH0 PUSH0 REVERT JUMPDEST PUSH2 0xA4 PUSH1 0x4 DUP1 CALLDATASIZE SUB DUP2 ADD SWAP1 PUSH2 0x9F SWAP2 SWAP1 PUSH2 0xB2D JUMP JUMPDEST PUSH2 0x194 JUMP JUMPDEST STOP JUMPDEST PUSH2 0xC0 PUSH1 0x4 DUP1 CALLDATASIZE SUB DUP2 ADD SWAP1 PUSH2 0xBB SWAP2 SWAP1 PUSH2 0xB2D JUMP JUMPDEST PUSH2 0x281 JUMP JUMPDEST STOP JUMPDEST PUSH2 0xDC PUSH1 0x4 DUP1 CALLDATASIZE SUB DUP2 ADD SWAP1 PUSH2 0xD7 SWAP2 SWAP1 PUSH2 0xBB9 JUMP JUMPDEST PUSH2 0x366 JUMP JUMPDEST STOP JUMPDEST PUSH2 0xF8 PUSH1 0x4 DUP1 CALLDATASIZE SUB DUP2 ADD SWAP1 PUSH2 0xF3 SWAP2 SWAP1 PUSH2 0xB2D JUMP JUMPDEST PUSH2 0x5E7 JUMP JUMPDEST STOP JUMPDEST PUSH2 0x114 PUSH1 0x4 DUP1 CALLDATASIZE SUB DUP2 ADD SWAP1 PUSH2 0x10F SWAP2 SWAP1 PUSH2 0xB2D JUMP JUMPDEST PUSH2 0x6D3 JUMP JUMPDEST STOP JUMPDEST PUSH2 0x130 PUSH1 0x4 DUP1 CALLDATASIZE SUB DUP2 ADD SWAP1 PUSH2 0x12B SWAP2 SWAP1 PUSH2 0xB2D JUMP JUMPDEST PUSH2 0x7B8 JUMP JUMPDEST PUSH1 0x40 MLOAD PUSH2 0x13D SWAP2 SWAP1 PUSH2 0xDB5 JUMP JUMPDEST PUSH1 0x40 MLOAD DUP1 SWAP2 SUB SWAP1 RETURN JUMPDEST PUSH2 0x160 PUSH1 0x4 DUP1 CALLDATASIZE SUB DUP2 ADD SWAP1 PUSH2 0x15B SWAP2 SWAP1 PUSH2 0xB2D JUMP JUMPDEST PUSH2 0xA8A JUMP JUMPDEST PUSH1 0x40 MLOAD PUSH2 0x16D SWAP2 SWAP1 PUSH2 0xDEF JUMP JUMPDEST PUSH1 0x40 MLOAD DUP1 SWAP2 SUB SWAP1 RETURN JUMPDEST PUSH2 0x17E PUSH2 0xAA7 JUMP JUMPDEST PUSH1 0x40 MLOAD PUSH2 0x18B SWAP2 SWAP1 PUSH2 0xE17 JUMP JUMPDEST PUSH1 0x40 MLOAD DUP1 SWAP2 SUB SWAP1 RETURN JUMPDEST PUSH1 0x1 PUSH1 0x3 PUSH0 CALLER PUSH20 0xFFFFFFFFFFFFFFFFFFFFFFFFFFFFFFFFFFFFFFFF AND PUSH20 0xFFFFFFFFFFFFFFFFFFFFFFFFFFFFFFFFFFFFFFFF AND DUP2 MSTORE PUSH1 0x20 ADD SWAP1 DUP2 MSTORE PUSH1 0x20 ADD PUSH0 KECCAK256 PUSH0 DUP4 PUSH20 0xFFFFFFFFFFFFFFFFFFFFFFFFFFFFFFFFFFFFFFFF AND PUSH20 0xFFFFFFFFFFFFFFFFFFFFFFFFFFFFFFFFFFFFFFFF AND DUP2 MSTORE PUSH1 0x20 ADD SWAP1 DUP2 MSTORE PUSH1 0x20 ADD PUSH0 KECCAK256 PUSH0 PUSH2 0x100 EXP DUP2 SLOAD DUP2 PUSH1 0xFF MUL NOT AND SWAP1 DUP4 ISZERO ISZERO MUL OR SWAP1 SSTORE POP DUP1 PUSH20 0xFFFFFFFFFFFFFFFFFFFFFFFFFFFFFFFFFFFFFFFF AND CALLER PUSH20 0xFFFFFFFFFFFFFFFFFFFFFFFFFFFFFFFFFFFFFFFF AND PUSH32 0x9F520B3BFC56D06F7065D10B4683B3F57AC8895D5026CD176DEE95CE1454CB8D PUSH1 0x40 MLOAD PUSH1 0x40 MLOAD DUP1 SWAP2 SUB SWAP1 LOG3 POP JUMP JUMPDEST PUSH0 PUSH0 SWAP1 SLOAD SWAP1 PUSH2 0x100 EXP SWAP1 DIV PUSH20 0xFFFFFFFFFFFFFFFFFFFFFFFFFFFFFFFFFFFFFFFF AND PUSH20 0xFFFFFFFFFFFFFFFFFFFFFFFFFFFFFFFFFFFFFFFF AND CALLER PUSH20 0xFFFFFFFFFFFFFFFFFFFFFFFFFFFFFFFFFFFFFFFF AND EQ PUSH2 0x30F JUMPI PUSH1 0x40 MLOAD PUSH32 0x8C379A000000000000000000000000000000000000000000000000000000000 DUP2 MSTORE PUSH1 0x4 ADD PUSH2 0x306 SWAP1 PUSH2 0xE8A JUMP JUMPDEST PUSH1 0x40 MLOAD DUP1 SWAP2 SUB SWAP1 REVERT JUMPDEST PUSH1 0x1 DUP1 PUSH0 DUP4 PUSH20 0xFFFFFFFFFFFFFFFFFFFFFFFFFFFFFFFFFFFFFFFF AND PUSH20 0xFFFFFFFFFFFFFFFFFFFFFFFFFFFFFFFFFFFFFFFF AND DUP2 MSTORE PUSH1 0x20 ADD SWAP1 DUP2 MSTORE PUSH1 0x20 ADD PUSH0 KECCAK256 PUSH0 PUSH2 0x100 EXP DUP2 SLOAD DUP2 PUSH1 0xFF MUL NOT AND SWAP1 DUP4 ISZERO ISZERO MUL OR SWAP1 SSTORE POP POP JUMP JUMPDEST PUSH1 0x1 PUSH0 CALLER PUSH20 0xFFFFFFFFFFFFFFFFFFFFFFFFFFFFFFFFFFFFFFFF AND PUSH20 0xFFFFFFFFFFFFFFFFFFFFFFFFFFFFFFFFFFFFFFFF AND DUP2 MSTORE PUSH1 0x20 ADD SWAP1 DUP2 MSTORE PUSH1 0x20 ADD PUSH0 KECCAK256 PUSH0 SWAP1 SLOAD SWAP1 PUSH2 0x100 EXP SWAP1 DIV PUSH1 0xFF AND PUSH2 0x3EF JUMPI PUSH1 0x40 MLOAD PUSH32 0x8C379A000000000000000000000000000000000000000000000000000000000 DUP2 MSTORE PUSH1 0x4 ADD PUSH2 0x3E6 SWAP1 PUSH2 0xEF2 JUMP JUMPDEST PUSH1 0x40 MLOAD DUP1 SWAP2 SUB SWAP1 REVERT JUMPDEST PUSH0 PUSH1 0x40 MLOAD DUP1 PUSH1 0x60 ADD PUSH1 0x40 MSTORE DUP1 TIMESTAMP DUP2 MSTORE PUSH1 0x20 ADD DUP5 DUP5 DUP1 DUP1 PUSH1 0x1F ADD PUSH1 0x20 DUP1 SWAP2 DIV MUL PUSH1 0x20 ADD PUSH1 0x40 MLOAD SWAP1 DUP2 ADD PUSH1 0x40 MSTORE DUP1 SWAP4 SWAP3 SWAP2 SWAP1 DUP2 DUP2 MSTORE PUSH1 0x20 ADD DUP4 DUP4 DUP1 DUP3 DUP5 CALLDATACOPY PUSH0 DUP2 DUP5 ADD MSTORE PUSH1 0x1F NOT PUSH1 0x1F DUP3 ADD AND SWAP1 POP DUP1 DUP4 ADD SWAP3 POP POP POP POP POP POP POP DUP2 MSTORE PUSH1 0x20 ADD CALLER PUSH20 0xFFFFFFFFFFFFFFFFFFFFFFFFFFFFFFFFFFFFFFFF AND DUP2 MSTORE POP SWAP1 POP PUSH1 0x2 PUSH0 DUP6 PUSH20 0xFFFFFFFFFFFFFFFFFFFFFFFFFFFFFFFFFFFFFFFF AND PUSH20 0xFFFFFFFFFFFFFFFFFFFFFFFFFFFFFFFFFFFFFFFF AND DUP2 MSTORE PUSH1 0x20 ADD SWAP1 DUP2 MSTORE PUSH1 0x20 ADD PUSH0 KECCAK256 DUP2 SWAP1 DUP1 PUSH1 0x1 DUP2 SLOAD ADD DUP1 DUP3 SSTORE DUP1 SWAP2 POP POP PUSH1 0x1 SWAP1 SUB SWAP1 PUSH0 MSTORE PUSH1 0x20 PUSH0 KECCAK256 SWAP1 PUSH1 0x3 MUL ADD PUSH0 SWAP1 SWAP2 SWAP1 SWAP2 SWAP1 SWAP2 POP PUSH0 DUP3 ADD MLOAD DUP2 PUSH0 ADD SSTORE PUSH1 0x20 DUP3 ADD MLOAD DUP2 PUSH1 0x1 ADD SWAP1 DUP2 PUSH2 0x4E7 SWAP2 SWAP1 PUSH2 0x113A JUMP JUMPDEST POP PUSH1 0x40 DUP3 ADD MLOAD DUP2 PUSH1 0x2 ADD PUSH0 PUSH2 0x100 EXP DUP2 SLOAD DUP2 PUSH20 0xFFFFFFFFFFFFFFFFFFFFFFFFFFFFFFFFFFFFFFFF MUL NOT AND SWAP1 DUP4 PUSH20 0xFFFFFFFFFFFFFFFFFFFFFFFFFFFFFFFFFFFFFFFF AND MUL OR SWAP1 SSTORE POP POP POP CALLER PUSH20 0xFFFFFFFFFFFFFFFFFFFFFFFFFFFFFFFFFFFFFFFF AND DUP5 PUSH20 0xFFFFFFFFFFFFFFFFFFFFFFFFFFFFFFFFFFFFFFFF AND PUSH32 0xFAB51555FE575ED9125C36207BA251B154757166D29B3A412D1015E3F9A3DA0E PUSH1 0x1 PUSH1 0x2 PUSH0 DUP10 PUSH20 0xFFFFFFFFFFFFFFFFFFFFFFFFFFFFFFFFFFFFFFFF AND PUSH20 0xFFFFFFFFFFFFFFFFFFFFFFFFFFFFFFFFFFFFFFFF AND DUP2 MSTORE PUSH1 0x20 ADD SWAP1 DUP2 MSTORE PUSH1 0x20 ADD PUSH0 KECCAK256 DUP1 SLOAD SWAP1 POP PUSH2 0x5CC SWAP2 SWAP1 PUSH2 0x1236 JUMP JUMPDEST PUSH1 0x40 MLOAD PUSH2 0x5D9 SWAP2 SWAP1 PUSH2 0x1278 JUMP JUMPDEST PUSH1 0x40 MLOAD DUP1 SWAP2 SUB SWAP1 LOG3 POP POP POP POP JUMP JUMPDEST PUSH0 PUSH1 0x3 PUSH0 CALLER PUSH20 0xFFFFFFFFFFFFFFFFFFFFFFFFFFFFFFFFFFFFFFFF AND PUSH20 0xFFFFFFFFFFFFFFFFFFFFFFFFFFFFFFFFFFFFFFFF AND DUP2 MSTORE PUSH1 0x20 ADD SWAP1 DUP2 MSTORE PUSH1 0x20 ADD PUSH0 KECCAK256 PUSH0 DUP4 PUSH20 0xFFFFFFFFFFFFFFFFFFFFFFFFFFFFFFFFFFFFFFFF AND PUSH20 0xFFFFFFFFFFFFFFFFFFFFFFFFFFFFFFFFFFFFFFFF AND DUP2 MSTORE PUSH1 0x20 ADD SWAP1 DUP2 MSTORE PUSH1 0x20 ADD PUSH0 KECCAK256 PUSH0 PUSH2 0x100 EXP DUP2 SLOAD DUP2 PUSH1 0xFF MUL NOT AND SWAP1 DUP4 ISZERO ISZERO MUL OR SWAP1 SSTORE POP DUP1 PUSH20 0xFFFFFFFFFFFFFFFFFFFFFFFFFFFFFFFFFFFFFFFF AND CALLER PUSH20 0xFFFFFFFFFFFFFFFFFFFFFFFFFFFFFFFFFFFFFFFF AND PUSH32 0x825C8BE24EB0DF19500F63E86C29E7D0D951E73056B889B891D85E40938D9B6E PUSH1 0x40 MLOAD PUSH1 0x40 MLOAD DUP1 SWAP2 SUB SWAP1 LOG3 POP JUMP JUMPDEST PUSH0 PUSH0 SWAP1 SLOAD SWAP1 PUSH2 0x100 EXP SWAP1 DIV PUSH20 0xFFFFFFFFFFFFFFFFFFFFFFFFFFFFFFFFFFFFFFFF AND PUSH20 0xFFFFFFFFFFFFFFFFFFFFFFFFFFFFFFFFFFFFFFFF AND CALLER PUSH20 0xFFFFFFFFFFFFFFFFFFFFFFFFFFFFFFFFFFFFFFFF AND EQ PUSH2 0x761 JUMPI PUSH1 0x40 MLOAD PUSH32 0x8C379A000000000000000000000000000000000000000000000000000000000 DUP2 MSTORE PUSH1 0x4 ADD PUSH2 0x758 SWAP1 PUSH2 0xE8A JUMP JUMPDEST PUSH1 0x40 MLOAD DUP1 SWAP2 SUB SWAP1 REVERT JUMPDEST PUSH0 PUSH1 0x1 PUSH0 DUP4 PUSH20 0xFFFFFFFFFFFFFFFFFFFFFFFFFFFFFFFFFFFFFFFF AND PUSH20 0xFFFFFFFFFFFFFFFFFFFFFFFFFFFFFFFFFFFFFFFF AND DUP2 MSTORE PUSH1 0x20 ADD SWAP1 DUP2 MSTORE PUSH1 0x20 ADD PUSH0 KECCAK256 PUSH0 PUSH2 0x100 EXP DUP2 SLOAD DUP2 PUSH1 0xFF MUL NOT AND SWAP1 DUP4 ISZERO ISZERO MUL OR SWAP1 SSTORE POP POP JUMP JUMPDEST PUSH1 0x60 DUP2 PUSH20 0xFFFFFFFFFFFFFFFFFFFFFFFFFFFFFFFFFFFFFFFF AND CALLER PUSH20 0xFFFFFFFFFFFFFFFFFFFFFFFFFFFFFFFFFFFFFFFF AND EQ DUP1 PUSH2 0x875 JUMPI POP PUSH1 0x3 PUSH0 DUP4 PUSH20 0xFFFFFFFFFFFFFFFFFFFFFFFFFFFFFFFFFFFFFFFF AND PUSH20 0xFFFFFFFFFFFFFFFFFFFFFFFFFFFFFFFFFFFFFFFF AND DUP2 MSTORE PUSH1 0x20 ADD SWAP1 DUP2 MSTORE PUSH1 0x20 ADD PUSH0 KECCAK256 PUSH0 CALLER PUSH20 0xFFFFFFFFFFFFFFFFFFFFFFFFFFFFFFFFFFFFFFFF AND PUSH20 0xFFFFFFFFFFFFFFFFFFFFFFFFFFFFFFFFFFFFFFFF AND DUP2 MSTORE PUSH1 0x20 ADD SWAP1 DUP2 MSTORE PUSH1 0x20 ADD PUSH0 KECCAK256 PUSH0 SWAP1 SLOAD SWAP1 PUSH2 0x100 EXP SWAP1 DIV PUSH1 0xFF AND JUMPDEST DUP1 PUSH2 0x8C6 JUMPI POP PUSH1 0x1 PUSH0 CALLER PUSH20 0xFFFFFFFFFFFFFFFFFFFFFFFFFFFFFFFFFFFFFFFF AND PUSH20 0xFFFFFFFFFFFFFFFFFFFFFFFFFFFFFFFFFFFFFFFF AND DUP2 MSTORE PUSH1 0x20 ADD SWAP1 DUP2 MSTORE PUSH1 0x20 ADD PUSH0 KECCAK256 PUSH0 SWAP1 SLOAD SWAP1 PUSH2 0x100 EXP SWAP1 DIV PUSH1 0xFF AND JUMPDEST PUSH2 0x905 JUMPI PUSH1 0x40 MLOAD PUSH32 0x8C379A000000000000000000000000000000000000000000000000000000000 DUP2 MSTORE PUSH1 0x4 ADD PUSH2 0x8FC SWAP1 PUSH2 0x12DB JUMP JUMPDEST PUSH1 0x40 MLOAD DUP1 SWAP2 SUB SWAP1 REVERT JUMPDEST PUSH1 0x2 PUSH0 DUP4 PUSH20 0xFFFFFFFFFFFFFFFFFFFFFFFFFFFFFFFFFFFFFFFF AND PUSH20 0xFFFFFFFFFFFFFFFFFFFFFFFFFFFFFFFFFFFFFFFF AND DUP2 MSTORE PUSH1 0x20 ADD SWAP1 DUP2 MSTORE PUSH1 0x20 ADD PUSH0 KECCAK256 DUP1 SLOAD DUP1 PUSH1 0x20 MUL PUSH1 0x20 ADD PUSH1 0x40 MLOAD SWAP1 DUP2 ADD PUSH1 0x40 MSTORE DUP1 SWAP3 SWAP2 SWAP1 DUP2 DUP2 MSTORE PUSH1 0x20 ADD PUSH0 SWAP1 JUMPDEST DUP3 DUP3 LT ISZERO PUSH2 0xA7F JUMPI DUP4 DUP3 SWAP1 PUSH0 MSTORE PUSH1 0x20 PUSH0 KECCAK256 SWAP1 PUSH1 0x3 MUL ADD PUSH1 0x40 MLOAD DUP1 PUSH1 0x60 ADD PUSH1 0x40 MSTORE SWAP1 DUP2 PUSH0 DUP3 ADD SLOAD DUP2 MSTORE PUSH1 0x20 ADD PUSH1 0x1 DUP3 ADD DUP1 SLOAD PUSH2 0x99B SWAP1 PUSH2 0xF6A JUMP JUMPDEST DUP1 PUSH1 0x1F ADD PUSH1 0x20 DUP1 SWAP2 DIV MUL PUSH1 0x20 ADD PUSH1 0x40 MLOAD SWAP1 DUP2 ADD PUSH1 0x40 MSTORE DUP1 SWAP3 SWAP2 SWAP1 DUP2 DUP2 MSTORE PUSH1 0x20 ADD DUP3 DUP1 SLOAD PUSH2 0x9C7 SWAP1 PUSH2 0xF6A JUMP JUMPDEST DUP1 ISZERO PUSH2 0xA12 JUMPI DUP1 PUSH1 0x1F LT PUSH2 0x9E9 JUMPI PUSH2 0x100 DUP1 DUP4 SLOAD DIV MUL DUP4 MSTORE SWAP2 PUSH1 0x20 ADD SWAP2 PUSH2 0xA12 JUMP JUMPDEST DUP3 ADD SWAP2 SWAP1 PUSH0 MSTORE PUSH1 0x20 PUSH0 KECCAK256 SWAP1 JUMPDEST DUP2 SLOAD DUP2 MSTORE SWAP1 PUSH1 0x1 ADD SWAP1 PUSH1 0x20 ADD DUP1 DUP4 GT PUSH2 0x9F5 JUMPI DUP3 SWAP1 SUB PUSH1 0x1F AND DUP3 ADD SWAP2 JUMPDEST POP POP POP POP POP DUP2 MSTORE PUSH1 0x20 ADD PUSH1 0x2 DUP3 ADD PUSH0 SWAP1 SLOAD SWAP1 PUSH2 0x100 EXP SWAP1 DIV PUSH20 0xFFFFFFFFFFFFFFFFFFFFFFFFFFFFFFFFFFFFFFFF AND PUSH20 0xFFFFFFFFFFFFFFFFFFFFFFFFFFFFFFFFFFFFFFFF AND PUSH20 0xFFFFFFFFFFFFFFFFFFFFFFFFFFFFFFFFFFFFFFFF AND DUP2 MSTORE POP POP DUP2 MSTORE PUSH1 0x20 ADD SWAP1 PUSH1 0x1 ADD SWAP1 PUSH2 0x961 JUMP JUMPDEST POP POP POP POP SWAP1 POP SWAP2 SWAP1 POP JUMP JUMPDEST PUSH1 0x1 PUSH1 0x20 MSTORE DUP1 PUSH0 MSTORE PUSH1 0x40 PUSH0 KECCAK256 PUSH0 SWAP2 POP SLOAD SWAP1 PUSH2 0x100 EXP SWAP1 DIV PUSH1 0xFF AND DUP2 JUMP JUMPDEST PUSH0 PUSH0 SWAP1 SLOAD SWAP1 PUSH2 0x100 EXP SWAP1 DIV PUSH20 0xFFFFFFFFFFFFFFFFFFFFFFFFFFFFFFFFFFFFFFFF AND DUP2 JUMP JUMPDEST PUSH0 PUSH0 REVERT JUMPDEST PUSH0 PUSH0 REVERT JUMPDEST PUSH0 PUSH20 0xFFFFFFFFFFFFFFFFFFFFFFFFFFFFFFFFFFFFFFFF DUP3 AND SWAP1 POP SWAP2 SWAP1 POP JUMP JUMPDEST PUSH0 PUSH2 0xAFC DUP3 PUSH2 0xAD3 JUMP JUMPDEST SWAP1 POP SWAP2 SWAP1 POP JUMP JUMPDEST PUSH2 0xB0C DUP2 PUSH2 0xAF2 JUMP JUMPDEST DUP2 EQ PUSH2 0xB16 JUMPI PUSH0 PUSH0 REVERT JUMPDEST POP JUMP JUMPDEST PUSH0 DUP2 CALLDATALOAD SWAP1 POP PUSH2 0xB27 DUP2 PUSH2 0xB03 JUMP JUMPDEST SWAP3 SWAP2 POP POP JUMP JUMPDEST PUSH0 PUSH1 0x20 DUP3 DUP5 SUB SLT ISZERO PUSH2 0xB42 JUMPI PUSH2 0xB41 PUSH2 0xACB JUMP JUMPDEST JUMPDEST PUSH0 PUSH2 0xB4F DUP5 DUP3 DUP6 ADD PUSH2 0xB19 JUMP JUMPDEST SWAP2 POP POP SWAP3 SWAP2 POP POP JUMP JUMPDEST PUSH0 PUSH0 REVERT JUMPDEST PUSH0 PUSH0 REVERT JUMPDEST PUSH0 PUSH0 REVERT JUMPDEST PUSH0 PUSH0 DUP4 PUSH1 0x1F DUP5 ADD SLT PUSH2 0xB79 JUMPI PUSH2 0xB78 PUSH2 0xB58 JUMP JUMPDEST JUMPDEST DUP3 CALLDATALOAD SWAP1 POP PUSH8 0xFFFFFFFFFFFFFFFF DUP2 GT ISZERO PUSH2 0xB96 JUMPI PUSH2 0xB95 PUSH2 0xB5C JUMP JUMPDEST JUMPDEST PUSH1 0x20 DUP4 ADD SWAP2 POP DUP4 PUSH1 0x1 DUP3 MUL DUP4 ADD GT ISZERO PUSH2 0xBB2 JUMPI PUSH2 0xBB1 PUSH2 0xB60 JUMP JUMPDEST JUMPDEST SWAP3 POP SWAP3 SWAP1 POP JUMP JUMPDEST PUSH0 PUSH0 PUSH0 PUSH1 0x40 DUP5 DUP7 SUB SLT ISZERO PUSH2 0xBD0 JUMPI PUSH2 0xBCF PUSH2 0xACB JUMP JUMPDEST JUMPDEST PUSH0 PUSH2 0xBDD DUP7 DUP3 DUP8 ADD PUSH2 0xB19 JUMP JUMPDEST SWAP4 POP POP PUSH1 0x20 DUP5 ADD CALLDATALOAD PUSH8 0xFFFFFFFFFFFFFFFF DUP2 GT ISZERO PUSH2 0xBFE JUMPI PUSH2 0xBFD PUSH2 0xACF JUMP JUMPDEST JUMPDEST PUSH2 0xC0A DUP7 DUP3 DUP8 ADD PUSH2 0xB64 JUMP JUMPDEST SWAP3 POP SWAP3 POP POP SWAP3 POP SWAP3 POP SWAP3 JUMP JUMPDEST PUSH0 DUP2 MLOAD SWAP1 POP SWAP2 SWAP1 POP JUMP JUMPDEST PUSH0 DUP3 DUP3 MSTORE PUSH1 0x20 DUP3 ADD SWAP1 POP SWAP3 SWAP2 POP POP JUMP JUMPDEST PUSH0 DUP2 SWAP1 POP PUSH1 0x20 DUP3 ADD SWAP1 POP SWAP2 SWAP1 POP JUMP JUMPDEST PUSH0 DUP2 SWAP1 POP SWAP2 SWAP1 POP JUMP JUMPDEST PUSH2 0xC51 DUP2 PUSH2 0xC3F JUMP JUMPDEST DUP3 MSTORE POP POP JUMP JUMPDEST PUSH0 DUP2 MLOAD SWAP1 POP SWAP2 SWAP1 POP JUMP JUMPDEST PUSH0 DUP3 DUP3 MSTORE PUSH1 0x20 DUP3 ADD SWAP1 POP SWAP3 SWAP2 POP POP JUMP JUMPDEST DUP3 DUP2 DUP4 MCOPY PUSH0 DUP4 DUP4 ADD MSTORE POP POP POP JUMP JUMPDEST PUSH0 PUSH1 0x1F NOT PUSH1 0x1F DUP4 ADD AND SWAP1 POP SWAP2 SWAP1 POP JUMP JUMPDEST PUSH0 PUSH2 0xC99 DUP3 PUSH2 0xC57 JUMP JUMPDEST PUSH2 0xCA3 DUP2 DUP6 PUSH2 0xC61 JUMP JUMPDEST SWAP4 POP PUSH2 0xCB3 DUP2 DUP6 PUSH1 0x20 DUP7 ADD PUSH2 0xC71 JUMP JUMPDEST PUSH2 0xCBC DUP2 PUSH2 0xC7F JUMP JUMPDEST DUP5 ADD SWAP2 POP POP SWAP3 SWAP2 POP POP JUMP JUMPDEST PUSH2 0xCD0 DUP2 PUSH2 0xAF2 JUMP JUMPDEST DUP3 MSTORE POP POP JUMP JUMPDEST PUSH0 PUSH1 0x60 DUP4 ADD PUSH0 DUP4 ADD MLOAD PUSH2 0xCEB PUSH0 DUP7 ADD DUP3 PUSH2 0xC48 JUMP JUMPDEST POP PUSH1 0x20 DUP4 ADD MLOAD DUP5 DUP3 SUB PUSH1 0x20 DUP7 ADD MSTORE PUSH2 0xD03 DUP3 DUP3 PUSH2 0xC8F JUMP JUMPDEST SWAP2 POP POP PUSH1 0x40 DUP4 ADD MLOAD PUSH2 0xD18 PUSH1 0x40 DUP7 ADD DUP3 PUSH2 0xCC7 JUMP JUMPDEST POP DUP1 SWAP2 POP POP SWAP3 SWAP2 POP POP JUMP JUMPDEST PUSH0 PUSH2 0xD2E DUP4 DUP4 PUSH2 0xCD6 JUMP JUMPDEST SWAP1 POP SWAP3 SWAP2 POP POP JUMP JUMPDEST PUSH0 PUSH1 0x20 DUP3 ADD SWAP1 POP SWAP2 SWAP1 POP JUMP JUMPDEST PUSH0 PUSH2 0xD4C DUP3 PUSH2 0xC16 JUMP JUMPDEST PUSH2 0xD56 DUP2 DUP6 PUSH2 0xC20 JUMP JUMPDEST SWAP4 POP DUP4 PUSH1 0x20 DUP3 MUL DUP6 ADD PUSH2 0xD68 DUP6 PUSH2 0xC30 JUMP JUMPDEST DUP1 PUSH0 JUMPDEST DUP6 DUP2 LT ISZERO PUSH2 0xDA3 JUMPI DUP5 DUP5 SUB DUP10 MSTORE DUP2 MLOAD PUSH2 0xD84 DUP6 DUP3 PUSH2 0xD23 JUMP JUMPDEST SWAP5 POP PUSH2 0xD8F DUP4 PUSH2 0xD36 JUMP JUMPDEST SWAP3 POP PUSH1 0x20 DUP11 ADD SWAP10 POP POP PUSH1 0x1 DUP2 ADD SWAP1 POP PUSH2 0xD6B JUMP JUMPDEST POP DUP3 SWAP8 POP DUP8 SWAP6 POP POP POP POP POP POP SWAP3 SWAP2 POP POP JUMP JUMPDEST PUSH0 PUSH1 0x20 DUP3 ADD SWAP1 POP DUP2 DUP2 SUB PUSH0 DUP4 ADD MSTORE PUSH2 0xDCD DUP2 DUP5 PUSH2 0xD42 JUMP JUMPDEST SWAP1 POP SWAP3 SWAP2 POP POP JUMP JUMPDEST PUSH0 DUP2 ISZERO ISZERO SWAP1 POP SWAP2 SWAP1 POP JUMP JUMPDEST PUSH2 0xDE9 DUP2 PUSH2 0xDD5 JUMP JUMPDEST DUP3 MSTORE POP POP JUMP JUMPDEST PUSH0 PUSH1 0x20 DUP3 ADD SWAP1 POP PUSH2 0xE02 PUSH0 DUP4 ADD DUP5 PUSH2 0xDE0 JUMP JUMPDEST SWAP3 SWAP2 POP POP JUMP JUMPDEST PUSH2 0xE11 DUP2 PUSH2 0xAF2 JUMP JUMPDEST DUP3 MSTORE POP POP JUMP JUMPDEST PUSH0 PUSH1 0x20 DUP3 ADD SWAP1 POP PUSH2 0xE2A PUSH0 DUP4 ADD DUP5 PUSH2 0xE08 JUMP JUMPDEST SWAP3 SWAP2 POP POP JUMP JUMPDEST PUSH0 DUP3 DUP3 MSTORE PUSH1 0x20 DUP3 ADD SWAP1 POP SWAP3 SWAP2 POP POP JUMP JUMPDEST PUSH32 0x4F6E6C792061646D696E00000000000000000000000000000000000000000000 PUSH0 DUP3 ADD MSTORE POP JUMP JUMPDEST PUSH0 PUSH2 0xE74 PUSH1 0xA DUP4 PUSH2 0xE30 JUMP JUMPDEST SWAP2 POP PUSH2 0xE7F DUP3 PUSH2 0xE40 JUMP JUMPDEST PUSH1 0x20 DUP3 ADD SWAP1 POP SWAP2 SWAP1 POP JUMP JUMPDEST PUSH0 PUSH1 0x20 DUP3 ADD SWAP1 POP DUP2 DUP2 SUB PUSH0 DUP4 ADD MSTORE PUSH2 0xEA1 DUP2 PUSH2 0xE68 JUMP JUMPDEST SWAP1 POP SWAP2 SWAP1 POP JUMP JUMPDEST PUSH32 0x4F6E6C7920646F63746F72730000000000000000000000000000000000000000 PUSH0 DUP3 ADD MSTORE POP JUMP JUMPDEST PUSH0 PUSH2 0xEDC PUSH1 0xC DUP4 PUSH2 0xE30 JUMP JUMPDEST SWAP2 POP PUSH2 0xEE7 DUP3 PUSH2 0xEA8 JUMP JUMPDEST PUSH1 0x20 DUP3 ADD SWAP1 POP SWAP2 SWAP1 POP JUMP JUMPDEST PUSH0 PUSH1 0x20 DUP3 ADD SWAP1 POP DUP2 DUP2 SUB PUSH0 DUP4 ADD MSTORE PUSH2 0xF09 DUP2 PUSH2 0xED0 JUMP JUMPDEST SWAP1 POP SWAP2 SWAP1 POP JUMP JUMPDEST PUSH32 0x4E487B7100000000000000000000000000000000000000000000000000000000 PUSH0 MSTORE PUSH1 0x41 PUSH1 0x4 MSTORE PUSH1 0x24 PUSH0 REVERT JUMPDEST PUSH32 0x4E487B7100000000000000000000000000000000000000000000000000000000 PUSH0 MSTORE PUSH1 0x22 PUSH1 0x4 MSTORE PUSH1 0x24 PUSH0 REVERT JUMPDEST PUSH0 PUSH1 0x2 DUP3 DIV SWAP1 POP PUSH1 0x1 DUP3 AND DUP1 PUSH2 0xF81 JUMPI PUSH1 0x7F DUP3 AND SWAP2 POP JUMPDEST PUSH1 0x20 DUP3 LT DUP2 SUB PUSH2 0xF94 JUMPI PUSH2 0xF93 PUSH2 0xF3D JUMP JUMPDEST JUMPDEST POP SWAP2 SWAP1 POP JUMP JUMPDEST PUSH0 DUP2 SWAP1 POP DUP2 PUSH0 MSTORE PUSH1 0x20 PUSH0 KECCAK256 SWAP1 POP SWAP2 SWAP1 POP JUMP JUMPDEST PUSH0 PUSH1 0x20 PUSH1 0x1F DUP4 ADD DIV SWAP1 POP SWAP2 SWAP1 POP JUMP JUMPDEST PUSH0 DUP3 DUP3 SHL SWAP1 POP SWAP3 SWAP2 POP POP JUMP JUMPDEST PUSH0 PUSH1 0x8 DUP4 MUL PUSH2 0xFF6 PUSH32 0xFFFFFFFFFFFFFFFFFFFFFFFFFFFFFFFFFFFFFFFFFFFFFFFFFFFFFFFFFFFFFFFF DUP3 PUSH2 0xFBB JUMP JUMPDEST PUSH2 0x1000 DUP7 DUP4 PUSH2 0xFBB JUMP JUMPDEST SWAP6 POP DUP1 NOT DUP5 AND SWAP4 POP DUP1 DUP7 AND DUP5 OR SWAP3 POP POP POP SWAP4 SWAP3 POP POP POP JUMP JUMPDEST PUSH0 DUP2 SWAP1 POP SWAP2 SWAP1 POP JUMP JUMPDEST PUSH0 PUSH2 0x103B PUSH2 0x1036 PUSH2 0x1031 DUP5 PUSH2 0xC3F JUMP JUMPDEST PUSH2 0x1018 JUMP JUMPDEST PUSH2 0xC3F JUMP JUMPDEST SWAP1 POP SWAP2 SWAP1 POP JUMP JUMPDEST PUSH0 DUP2 SWAP1 POP SWAP2 SWAP1 POP JUMP JUMPDEST PUSH2 0x1054 DUP4 PUSH2 0x1021 JUMP JUMPDEST PUSH2 0x1068 PUSH2 0x1060 DUP3 PUSH2 0x1042 JUMP JUMPDEST DUP5 DUP5 SLOAD PUSH2 0xFC7 JUMP JUMPDEST DUP3 SSTORE POP POP POP POP JUMP JUMPDEST PUSH0 PUSH0 SWAP1 POP SWAP1 JUMP JUMPDEST PUSH2 0x107F PUSH2 0x1070 JUMP JUMPDEST PUSH2 0x108A DUP2 DUP5 DUP5 PUSH2 0x104B JUMP JUMPDEST POP POP POP JUMP JUMPDEST JUMPDEST DUP2 DUP2 LT ISZERO PUSH2 0x10AD JUMPI PUSH2 0x10A2 PUSH0 DUP3 PUSH2 0x1077 JUMP JUMPDEST PUSH1 0x1 DUP2 ADD SWAP1 POP PUSH2 0x1090 JUMP JUMPDEST POP POP JUMP JUMPDEST PUSH1 0x1F DUP3 GT ISZERO PUSH2 0x10F2 JUMPI PUSH2 0x10C3 DUP2 PUSH2 0xF9A JUMP JUMPDEST PUSH2 0x10CC DUP5 PUSH2 0xFAC JUMP JUMPDEST DUP2 ADD PUSH1 0x20 DUP6 LT ISZERO PUSH2 0x10DB JUMPI DUP2 SWAP1 POP JUMPDEST PUSH2 0x10EF PUSH2 0x10E7 DUP6 PUSH2 0xFAC JUMP JUMPDEST DUP4 ADD DUP3 PUSH2 0x108F JUMP JUMPDEST POP POP JUMPDEST POP POP POP JUMP JUMPDEST PUSH0 DUP3 DUP3 SHR SWAP1 POP SWAP3 SWAP2 POP POP JUMP JUMPDEST PUSH0 PUSH2 0x1112 PUSH0 NOT DUP5 PUSH1 0x8 MUL PUSH2 0x10F7 JUMP JUMPDEST NOT DUP1 DUP4 AND SWAP2 POP POP SWAP3 SWAP2 POP POP JUMP JUMPDEST PUSH0 PUSH2 0x112A DUP4 DUP4 PUSH2 0x1103 JUMP JUMPDEST SWAP2 POP DUP3 PUSH1 0x2 MUL DUP3 OR SWAP1 POP SWAP3 SWAP2 POP POP JUMP JUMPDEST PUSH2 0x1143 DUP3 PUSH2 0xC57 JUMP JUMPDEST PUSH8 0xFFFFFFFFFFFFFFFF DUP2 GT ISZERO PUSH2 0x115C JUMPI PUSH2 0x115B PUSH2 0xF10 JUMP JUMPDEST JUMPDEST PUSH2 0x1166 DUP3 SLOAD PUSH2 0xF6A JUMP JUMPDEST PUSH2 0x1171 DUP3 DUP3 DUP6 PUSH2 0x10B1 JUMP JUMPDEST PUSH0 PUSH1 0x20 SWAP1 POP PUSH1 0x1F DUP4 GT PUSH1 0x1 DUP2 EQ PUSH2 0x11A2 JUMPI PUSH0 DUP5 ISZERO PUSH2 0x1190 JUMPI DUP3 DUP8 ADD MLOAD SWAP1 POP JUMPDEST PUSH2 0x119A DUP6 DUP3 PUSH2 0x111F JUMP JUMPDEST DUP7 SSTORE POP PUSH2 0x1201 JUMP JUMPDEST PUSH1 0x1F NOT DUP5 AND PUSH2 0x11B0 DUP7 PUSH2 0xF9A JUMP JUMPDEST PUSH0 JUMPDEST DUP3 DUP2 LT ISZERO PUSH2 0x11D7 JUMPI DUP5 DUP10 ADD MLOAD DUP3 SSTORE PUSH1 0x1 DUP3 ADD SWAP2 POP PUSH1 0x20 DUP6 ADD SWAP5 POP PUSH1 0x20 DUP2 ADD SWAP1 POP PUSH2 0x11B2 JUMP JUMPDEST DUP7 DUP4 LT ISZERO PUSH2 0x11F4 JUMPI DUP5 DUP10 ADD MLOAD PUSH2 0x11F0 PUSH1 0x1F DUP10 AND DUP3 PUSH2 0x1103 JUMP JUMPDEST DUP4 SSTORE POP JUMPDEST PUSH1 0x1 PUSH1 0x2 DUP9 MUL ADD DUP9 SSTORE POP POP POP JUMPDEST POP POP POP POP POP POP JUMP JUMPDEST PUSH32 0x4E487B7100000000000000000000000000000000000000000000000000000000 PUSH0 MSTORE PUSH1 0x11 PUSH1 0x4 MSTORE PUSH1 0x24 PUSH0 REVERT JUMPDEST PUSH0 PUSH2 0x1240 DUP3 PUSH2 0xC3F JUMP JUMPDEST SWAP2 POP PUSH2 0x124B DUP4 PUSH2 0xC3F JUMP JUMPDEST SWAP3 POP DUP3 DUP3 SUB SWAP1 POP DUP2 DUP2 GT ISZERO PUSH2 0x1263 JUMPI PUSH2 0x1262 PUSH2 0x1209 JUMP JUMPDEST JUMPDEST SWAP3 SWAP2 POP POP JUMP JUMPDEST PUSH2 0x1272 DUP2 PUSH2 0xC3F JUMP JUMPDEST DUP3 MSTORE POP POP JUMP JUMPDEST PUSH0 PUSH1 0x20 DUP3 ADD SWAP1 POP PUSH2 0x128B PUSH0 DUP4 ADD DUP5 PUSH2 0x1269 JUMP JUMPDEST SWAP3 SWAP2 POP POP JUMP JUMPDEST PUSH32 0x4163636573732064656E69656400000000000000000000000000000000000000 PUSH0 DUP3 ADD MSTORE POP JUMP JUMPDEST PUSH0 PUSH2 0x12C5 PUSH1 0xD DUP4 PUSH2 0xE30 JUMP JUMPDEST SWAP2 POP PUSH2 0x12D0 DUP3 PUSH2 0x1291 JUMP JUMPDEST PUSH1 0x20 DUP3 ADD SWAP1 POP SWAP2 SWAP1 POP JUMP JUMPDEST PUSH0 PUSH1 0x20 DUP3 ADD SWAP1 POP DUP2 DUP2 SUB PUSH0 DUP4 ADD MSTORE PUSH2 0x12F2 DUP2 PUSH2 0x12B9 JUMP JUMPDEST SWAP1 POP SWAP2 SWAP1 POP JUMP INVALID LOG2 PUSH5 0x6970667358 0x22 SLT KECCAK256 CALLER TSTORE 0x4B GASLIMIT 0xDE 0x21 BLOCKHASH CALLVALUE SELFBALANCE PUSH28 0xE638F18BAE45844543CBC76A07B073527FC76F9263FD64736F6C6343 STOP ADDMOD 0x1E STOP CALLER "
				},
				"gasEstimates": {
					"creation": {
						"codeDepositCost": "982200",
						"executionCost": "25283",
						"totalCost": "1007483"
					},
					"external": {
						"addDoctor(address)": "26994",
						"addRecord(address,string)": "infinite",
						"admin()": "2573",
						"doctors(address)": "2877",
						"getRecords(address)": "infinite",
						"grantAccess(address)": "26435",
						"removeDoctor(address)": "26970",
						"revokeAccess(address)": "26500"
					}
				},
				"methodIdentifiers": {
					"addDoctor(address)": "4780468f",
					"addRecord(address,string)": "66858ec8",
					"admin()": "f851a440",
					"doctors(address)": "a9583c22",
					"getRecords(address)": "a0076e84",
					"grantAccess(address)": "0ae5e739",
					"removeDoctor(address)": "98fc90e9",
					"revokeAccess(address)": "85e68531"
				}
			},
			"storageLayout": {
				"storage": [
					{
						"astId": 4,
						"contract": "HealthcareRecordManager.sol:HealthcareRecordManager",
						"label": "admin",
						"offset": 0,
						"slot": "0",
						"type": "t_address"
					},
					{
						"astId": 8,
						"contract": "HealthcareRecordManager.sol:HealthcareRecordManager",
						"label": "doctors",
						"offset": 0,
						"slot": "1",
						"type": "t_mapping(t_address,t_bool)"
					},
					{
						"astId": 21,
						"contract": "HealthcareRecordManager.sol:HealthcareRecordManager",
						"label": "patientRecords",
						"offset": 0,
						"slot": "2",
						"type": "t_mapping(t_address,t_array(t_struct(Record)15_storage)dyn_storage)"
					},
					{
						"astId": 27,
						"contract": "HealthcareRecordManager.sol:HealthcareRecordManager",
						"label": "accessRights",
						"offset": 0,
						"slot": "3",
						"type": "t_mapping(t_address,t_mapping(t_address,t_bool))"
					}
				],
				"types": {
					"t_address": {
						"encoding": "inplace",
						"label": "address",
						"numberOfBytes": "20"
					},
					"t_array(t_struct(Record)15_storage)dyn_storage": {
						"base": "t_struct(Record)15_storage",
						"encoding": "dynamic_array",
						"label": "struct HealthcareRecordManager.Record[]",
						"numberOfBytes": "32"
					},
					"t_bool": {
						"encoding": "inplace",
						"label": "bool",
						"numberOfBytes": "1"
					},
					"t_mapping(t_address,t_array(t_struct(Record)15_storage)dyn_storage)": {
						"encoding": "mapping",
						"key": "t_address",
						"label": "mapping(address => struct HealthcareRecordManager.Record[])",
						"numberOfBytes": "32",
						"value": "t_array(t_struct(Record)15_storage)dyn_storage"
					},
					"t_mapping(t_address,t_bool)": {
						"encoding": "mapping",
						"key": "t_address",
						"label": "mapping(address => bool)",
						"numberOfBytes": "32",
						"value": "t_bool"
					},
					"t_mapping(t_address,t_mapping(t_address,t_bool))": {
						"encoding": "mapping",
						"key": "t_address",
						"label": "mapping(address => mapping(address => bool))",
						"numberOfBytes": "32",
						"value": "t_mapping(t_address,t_bool)"
					},
					"t_string_storage": {
						"encoding": "bytes",
						"label": "string",
						"numberOfBytes": "32"
					},
					"t_struct(Record)15_storage": {
						"encoding": "inplace",
						"label": "struct HealthcareRecordManager.Record",
						"members": [
							{
								"astId": 10,
								"contract": "HealthcareRecordManager.sol:HealthcareRecordManager",
								"label": "timestamp",
								"offset": 0,
								"slot": "0",
								"type": "t_uint256"
							},
							{
								"astId": 12,
								"contract": "HealthcareRecordManager.sol:HealthcareRecordManager",
								"label": "dataHash",
								"offset": 0,
								"slot": "1",
								"type": "t_string_storage"
							},
							{
								"astId": 14,
								"contract": "HealthcareRecordManager.sol:HealthcareRecordManager",
								"label": "addedBy",
								"offset": 0,
								"slot": "2",
								"type": "t_address"
							}
						],
						"numberOfBytes": "96"
					},
					"t_uint256": {
						"encoding": "inplace",
						"label": "uint256",
						"numberOfBytes": "32"
					}
				}
			},
			"userdoc": {
				"kind": "user",
				"methods": {},
				"notice": "Manages patient records with doctor-only access control and audit logging.",
				"version": 1
			}
		}
	}
}